{
  "contractName": "Rent",
  "abi": [
    {
      "inputs": [],
      "stateMutability": "nonpayable",
      "type": "constructor"
    },
    {
      "anonymous": false,
      "inputs": [
        {
          "indexed": true,
          "internalType": "address",
          "name": "previousOwner",
          "type": "address"
        },
        {
          "indexed": true,
          "internalType": "address",
          "name": "newOwner",
          "type": "address"
        }
      ],
      "name": "OwnershipTransferred",
      "type": "event"
    },
    {
      "anonymous": false,
      "inputs": [
        {
          "indexed": false,
          "internalType": "uint256",
          "name": "rentId",
          "type": "uint256"
        },
        {
          "indexed": false,
          "internalType": "string",
          "name": "name",
          "type": "string"
        },
        {
          "indexed": false,
          "internalType": "uint256",
          "name": "security",
          "type": "uint256"
        },
        {
          "indexed": false,
          "internalType": "string",
          "name": "description",
          "type": "string"
        },
        {
          "indexed": false,
          "internalType": "uint256",
          "name": "rentPerDay",
          "type": "uint256"
        },
        {
          "indexed": false,
          "internalType": "address payable",
          "name": "person",
          "type": "address"
        }
      ],
      "name": "RentCreated",
      "type": "event"
    },
    {
      "anonymous": false,
      "inputs": [],
      "name": "RentDeleted",
      "type": "event"
    },
    {
      "anonymous": false,
      "inputs": [
        {
          "indexed": false,
          "internalType": "uint256",
          "name": "rentId",
          "type": "uint256"
        },
        {
          "indexed": false,
          "internalType": "string",
          "name": "name",
          "type": "string"
        },
        {
          "indexed": false,
          "internalType": "uint256",
          "name": "security",
          "type": "uint256"
        },
        {
          "indexed": false,
          "internalType": "string",
          "name": "description",
          "type": "string"
        },
        {
          "indexed": false,
          "internalType": "uint256",
          "name": "rentPerDay",
          "type": "uint256"
        },
        {
          "indexed": false,
          "internalType": "address payable",
          "name": "person",
          "type": "address"
        }
      ],
      "name": "RentTaken",
      "type": "event"
    },
    {
      "inputs": [
        {
          "internalType": "address",
          "name": "",
          "type": "address"
        }
      ],
      "name": "isRenting",
      "outputs": [
        {
          "internalType": "bool",
          "name": "",
          "type": "bool"
        }
      ],
      "stateMutability": "view",
      "type": "function",
      "constant": true
    },
    {
      "inputs": [],
      "name": "owner",
      "outputs": [
        {
          "internalType": "address",
          "name": "",
          "type": "address"
        }
      ],
      "stateMutability": "view",
      "type": "function",
      "constant": true
    },
    {
      "inputs": [
        {
          "internalType": "uint256",
          "name": "",
          "type": "uint256"
        },
        {
          "internalType": "uint256",
          "name": "",
          "type": "uint256"
        }
      ],
      "name": "pastRents",
      "outputs": [
        {
          "internalType": "address",
          "name": "",
          "type": "address"
        }
      ],
      "stateMutability": "view",
      "type": "function",
      "constant": true
    },
    {
      "inputs": [],
      "name": "renounceOwnership",
      "outputs": [],
      "stateMutability": "nonpayable",
      "type": "function"
    },
    {
      "inputs": [],
      "name": "rentCount",
      "outputs": [
        {
          "internalType": "uint256",
          "name": "",
          "type": "uint256"
        }
      ],
      "stateMutability": "view",
      "type": "function",
      "constant": true
    },
    {
      "inputs": [
        {
          "internalType": "uint256",
          "name": "",
          "type": "uint256"
        }
      ],
      "name": "rentDetails",
      "outputs": [
        {
          "internalType": "uint256",
          "name": "rentId",
          "type": "uint256"
        },
        {
          "internalType": "string",
          "name": "name",
          "type": "string"
        },
        {
          "internalType": "uint256",
          "name": "security",
          "type": "uint256"
        },
        {
          "internalType": "string",
          "name": "description",
          "type": "string"
        },
        {
          "internalType": "int256",
          "name": "availability",
          "type": "int256"
        },
        {
          "internalType": "uint256",
          "name": "popularity",
          "type": "uint256"
        },
        {
          "internalType": "uint256",
          "name": "rentPerDay",
          "type": "uint256"
        },
        {
          "internalType": "address payable",
          "name": "person",
          "type": "address"
        },
        {
          "internalType": "address payable",
          "name": "owner",
          "type": "address"
        },
        {
          "internalType": "bool",
          "name": "exists",
          "type": "bool"
        }
      ],
      "stateMutability": "view",
      "type": "function",
      "constant": true
    },
    {
      "inputs": [
        {
          "internalType": "address",
          "name": "",
          "type": "address"
        }
      ],
      "name": "rented",
      "outputs": [
        {
          "internalType": "uint256",
          "name": "",
          "type": "uint256"
        }
      ],
      "stateMutability": "view",
      "type": "function",
      "constant": true
    },
    {
      "inputs": [
        {
          "internalType": "uint256",
          "name": "",
          "type": "uint256"
        }
      ],
      "name": "rentingTime",
      "outputs": [
        {
          "internalType": "uint256",
          "name": "",
          "type": "uint256"
        }
      ],
      "stateMutability": "view",
      "type": "function",
      "constant": true
    },
    {
      "inputs": [
        {
          "internalType": "uint256",
          "name": "",
          "type": "uint256"
        }
      ],
      "name": "timeOfRent",
      "outputs": [
        {
          "internalType": "uint256",
          "name": "",
          "type": "uint256"
        }
      ],
      "stateMutability": "view",
      "type": "function",
      "constant": true
    },
    {
      "inputs": [
        {
          "internalType": "address",
          "name": "newOwner",
          "type": "address"
        }
      ],
      "name": "transferOwnership",
      "outputs": [],
      "stateMutability": "nonpayable",
      "type": "function"
    },
    {
      "inputs": [
        {
          "internalType": "string",
          "name": "_name",
          "type": "string"
        },
        {
          "internalType": "string",
          "name": "_description",
          "type": "string"
        },
        {
          "internalType": "uint256",
          "name": "_security",
          "type": "uint256"
        },
        {
          "internalType": "uint256",
          "name": "_rentPerDay",
          "type": "uint256"
        }
      ],
      "name": "createRent",
      "outputs": [],
      "stateMutability": "nonpayable",
      "type": "function"
    },
    {
      "inputs": [
        {
          "internalType": "uint256",
          "name": "_id",
          "type": "uint256"
        },
        {
          "internalType": "string",
          "name": "newname",
          "type": "string"
        },
        {
          "internalType": "uint256",
          "name": "newsecurity",
          "type": "uint256"
        },
        {
          "internalType": "string",
          "name": "newDescription",
          "type": "string"
        },
        {
          "internalType": "uint256",
          "name": "newrentPerDay",
          "type": "uint256"
        }
      ],
      "name": "editDetails",
      "outputs": [],
      "stateMutability": "nonpayable",
      "type": "function"
    },
    {
      "inputs": [
        {
          "internalType": "uint256",
          "name": "_id",
          "type": "uint256"
        }
      ],
      "name": "takeOnMaintenance",
      "outputs": [],
      "stateMutability": "nonpayable",
      "type": "function"
    },
    {
      "inputs": [
        {
          "internalType": "uint256",
          "name": "_id",
          "type": "uint256"
        }
      ],
      "name": "returnFromMaintenance",
      "outputs": [],
      "stateMutability": "nonpayable",
      "type": "function"
    },
    {
      "inputs": [
        {
          "internalType": "uint256",
          "name": "_id",
          "type": "uint256"
        },
        {
          "internalType": "uint256",
          "name": "_timeOfRent",
          "type": "uint256"
        }
      ],
      "name": "takeRent",
      "outputs": [],
      "stateMutability": "payable",
      "type": "function",
      "payable": true
    },
    {
      "inputs": [
        {
          "internalType": "uint256",
          "name": "_id",
          "type": "uint256"
        }
      ],
      "name": "returnRent",
      "outputs": [],
      "stateMutability": "payable",
      "type": "function",
      "payable": true
    },
    {
      "inputs": [
        {
          "internalType": "uint256",
          "name": "_id",
          "type": "uint256"
        }
      ],
      "name": "getCurrentLessor",
      "outputs": [
        {
          "internalType": "address",
          "name": "",
          "type": "address"
        }
      ],
      "stateMutability": "view",
      "type": "function",
      "constant": true
    },
    {
      "inputs": [
        {
          "internalType": "uint256",
          "name": "_id",
          "type": "uint256"
        }
      ],
      "name": "deleteRent",
      "outputs": [],
      "stateMutability": "nonpayable",
      "type": "function"
    },
    {
      "inputs": [],
      "name": "getAllRent",
      "outputs": [
        {
          "components": [
            {
              "internalType": "uint256",
              "name": "rentId",
              "type": "uint256"
            },
            {
              "internalType": "string",
              "name": "name",
              "type": "string"
            },
            {
              "internalType": "uint256",
              "name": "security",
              "type": "uint256"
            },
            {
              "internalType": "string",
              "name": "description",
              "type": "string"
            },
            {
              "internalType": "int256",
              "name": "availability",
              "type": "int256"
            },
            {
              "internalType": "uint256",
              "name": "popularity",
              "type": "uint256"
            },
            {
              "internalType": "uint256",
              "name": "rentPerDay",
              "type": "uint256"
            },
            {
              "internalType": "address payable",
              "name": "person",
              "type": "address"
            },
            {
              "internalType": "address payable",
              "name": "owner",
              "type": "address"
            },
            {
              "internalType": "bool",
              "name": "exists",
              "type": "bool"
            }
          ],
          "internalType": "struct Rent.RentDetail[]",
          "name": "",
          "type": "tuple[]"
        }
      ],
      "stateMutability": "view",
      "type": "function",
      "constant": true
    },
    {
      "inputs": [
        {
          "internalType": "uint256",
          "name": "_id",
          "type": "uint256"
        }
      ],
      "name": "getRent",
      "outputs": [
        {
          "components": [
            {
              "internalType": "uint256",
              "name": "rentId",
              "type": "uint256"
            },
            {
              "internalType": "string",
              "name": "name",
              "type": "string"
            },
            {
              "internalType": "uint256",
              "name": "security",
              "type": "uint256"
            },
            {
              "internalType": "string",
              "name": "description",
              "type": "string"
            },
            {
              "internalType": "int256",
              "name": "availability",
              "type": "int256"
            },
            {
              "internalType": "uint256",
              "name": "popularity",
              "type": "uint256"
            },
            {
              "internalType": "uint256",
              "name": "rentPerDay",
              "type": "uint256"
            },
            {
              "internalType": "address payable",
              "name": "person",
              "type": "address"
            },
            {
              "internalType": "address payable",
              "name": "owner",
              "type": "address"
            },
            {
              "internalType": "bool",
              "name": "exists",
              "type": "bool"
            }
          ],
          "internalType": "struct Rent.RentDetail",
          "name": "",
          "type": "tuple"
        }
      ],
      "stateMutability": "view",
      "type": "function",
      "constant": true
    },
    {
      "inputs": [
        {
          "internalType": "uint256",
          "name": "_id",
          "type": "uint256"
        }
      ],
      "name": "takeToMaintenance",
      "outputs": [],
      "stateMutability": "nonpayable",
      "type": "function"
    },
    {
      "inputs": [
        {
          "internalType": "uint256",
          "name": "_id",
          "type": "uint256"
        }
      ],
      "name": "removeFromMaintenance",
      "outputs": [],
      "stateMutability": "nonpayable",
      "type": "function"
    }
  ],
  "bytecode": "0x60806040523480156200001157600080fd5b5062000032620000266200004060201b60201c565b6200004860201b60201c565b60006002819055506200010c565b600033905090565b60008060009054906101000a900473ffffffffffffffffffffffffffffffffffffffff169050816000806101000a81548173ffffffffffffffffffffffffffffffffffffffff021916908373ffffffffffffffffffffffffffffffffffffffff1602179055508173ffffffffffffffffffffffffffffffffffffffff168173ffffffffffffffffffffffffffffffffffffffff167f8be0079c531659141344cd1fd0a4f28419497f9722a3daafe3b4186f6b6457e060405160405180910390a35050565b614e10806200011c6000396000f3fe6080604052600436106101355760003560e01c806376efe856116100ab578063a48c9a761161006f578063a48c9a761461044b578063a9bea26114610474578063ad406c161461049f578063beda82c3146104c8578063de30d1c7146104f1578063f2fde38b1461051a57610135565b806376efe856146103565780637c2654f6146103725780638b9b83671461039d5780638da5cb5b146103da578063a1d035bd1461040557610135565b806335528ad4116100fd57806335528ad4146102435780633584206f1461025f5780634750f3ff1461029c5780634b5cd626146102d9578063715018a61461030257806373294f0f1461031957610135565b8063037d94021461013a57806319f66031146101775780631bfbb332146101a05780631ef9a82d146101c957806331d11a2914610206575b600080fd5b34801561014657600080fd5b50610161600480360381019061015c9190613bfb565b610543565b60405161016e9190613e26565b60405180910390f35b34801561018357600080fd5b5061019e60048036038101906101999190613f7d565b61078e565b005b3480156101ac57600080fd5b506101c760048036038101906101c29190613bfb565b610bad565b005b3480156101d557600080fd5b506101f060048036038101906101eb9190614030565b610e44565b6040516101fd9190614091565b60405180910390f35b34801561021257600080fd5b5061022d600480360381019061022891906140d8565b610e92565b60405161023a9190614114565b60405180910390f35b61025d60048036038101906102589190614030565b610eb2565b005b34801561026b57600080fd5b5061028660048036038101906102819190613bfb565b6117e2565b6040516102939190614091565b60405180910390f35b3480156102a857600080fd5b506102c360048036038101906102be9190613bfb565b61187f565b6040516102d0919061413e565b60405180910390f35b3480156102e557600080fd5b5061030060048036038101906102fb9190613bfb565b611897565b005b34801561030e57600080fd5b50610317611db4565b005b34801561032557600080fd5b50610340600480360381019061033b91906140d8565b611e3c565b60405161034d919061413e565b60405180910390f35b610370600480360381019061036b9190613bfb565b611e54565b005b34801561037e57600080fd5b50610387612350565b604051610394919061413e565b60405180910390f35b3480156103a957600080fd5b506103c460048036038101906103bf9190613bfb565b612356565b6040516103d1919061413e565b60405180910390f35b3480156103e657600080fd5b506103ef61236e565b6040516103fc9190614091565b60405180910390f35b34801561041157600080fd5b5061042c60048036038101906104279190613bfb565b612397565b6040516104429a999897969594939291906141c1565b60405180910390f35b34801561045757600080fd5b50610472600480360381019061046d9190613bfb565b612548565b005b34801561048057600080fd5b50610489612ab9565b604051610496919061440e565b60405180910390f35b3480156104ab57600080fd5b506104c660048036038101906104c19190613bfb565b612d36565b005b3480156104d457600080fd5b506104ef60048036038101906104ea9190613bfb565b612fec565b005b3480156104fd57600080fd5b5061051860048036038101906105139190614430565b61336e565b005b34801561052657600080fd5b50610541600480360381019061053c91906140d8565b6137fc565b005b61054b6139c0565b600a60008381526020019081526020016000206040518061014001604052908160008201548152602001600182018054610584906144fe565b80601f01602080910402602001604051908101604052809291908181526020018280546105b0906144fe565b80156105fd5780601f106105d2576101008083540402835291602001916105fd565b820191906000526020600020905b8154815290600101906020018083116105e057829003601f168201915b5050505050815260200160028201548152602001600382018054610620906144fe565b80601f016020809104026020016040519081016040528092919081815260200182805461064c906144fe565b80156106995780601f1061066e57610100808354040283529160200191610699565b820191906000526020600020905b81548152906001019060200180831161067c57829003601f168201915b505050505081526020016004820154815260200160058201548152602001600682015481526020016007820160009054906101000a900473ffffffffffffffffffffffffffffffffffffffff1673ffffffffffffffffffffffffffffffffffffffff1673ffffffffffffffffffffffffffffffffffffffff1681526020016008820160009054906101000a900473ffffffffffffffffffffffffffffffffffffffff1673ffffffffffffffffffffffffffffffffffffffff1673ffffffffffffffffffffffffffffffffffffffff1681526020016008820160149054906101000a900460ff1615151515815250509050919050565b846000600a60008381526020019081526020016000209050600115158160080160149054906101000a900460ff161515146107fe576040517f08c379a00000000000000000000000000000000000000000000000000000000081526004016107f59061457c565b60405180910390fd5b866000600a600083815260200190815260200160002090503373ffffffffffffffffffffffffffffffffffffffff168160080160009054906101000a900473ffffffffffffffffffffffffffffffffffffffff1673ffffffffffffffffffffffffffffffffffffffff16146108a8576040517f08c379a000000000000000000000000000000000000000000000000000000000815260040161089f9061460e565b60405180910390fd5b6000600a60008b81526020019081526020016000209050888160010190805190602001906108d7929190613a41565b50878160020181905550868160030190805190602001906108f9929190613a41565b5085816006018190555080600a60008c8152602001908152602001600020600082015481600001556001820181600101908054610935906144fe565b610940929190613ac7565b5060028201548160020155600382018160030190805461095f906144fe565b61096a929190613ac7565b506004820154816004015560058201548160050155600682015481600601556007820160009054906101000a900473ffffffffffffffffffffffffffffffffffffffff168160070160006101000a81548173ffffffffffffffffffffffffffffffffffffffff021916908373ffffffffffffffffffffffffffffffffffffffff1602179055506008820160009054906101000a900473ffffffffffffffffffffffffffffffffffffffff168160080160006101000a81548173ffffffffffffffffffffffffffffffffffffffff021916908373ffffffffffffffffffffffffffffffffffffffff1602179055506008820160149054906101000a900460ff168160080160146101000a81548160ff02191690831515021790555090505060005b600980549050811015610ba0578a60098281548110610aac57610aab61462e565b5b9060005260206000209060090201600001541415610b8d578960098281548110610ad957610ad861462e565b5b90600052602060002090600902016001019080519060200190610afd929190613a41565b508860098281548110610b1357610b1261462e565b5b9060005260206000209060090201600201819055508760098281548110610b3d57610b3c61462e565b5b90600052602060002090600902016003019080519060200190610b61929190613a41565b508660098281548110610b7757610b7661462e565b5b9060005260206000209060090201600601819055505b8080610b989061468c565b915050610a8a565b5050505050505050505050565b610bb56138f4565b73ffffffffffffffffffffffffffffffffffffffff16610bd361236e565b73ffffffffffffffffffffffffffffffffffffffff1614610c29576040517f08c379a0000000000000000000000000000000000000000000000000000000008152600401610c2090614721565b60405180910390fd5b806000600a60008381526020019081526020016000209050600115158160080160149054906101000a900460ff16151514610c99576040517f08c379a0000000000000000000000000000000000000000000000000000000008152600401610c909061457c565b60405180910390fd5b6000600a600085815260200190815260200160002090506001816004018190555080600a6000868152602001908152602001600020600082015481600001556001820181600101908054610cec906144fe565b610cf7929190613ac7565b50600282015481600201556003820181600301908054610d16906144fe565b610d21929190613ac7565b506004820154816004015560058201548160050155600682015481600601556007820160009054906101000a900473ffffffffffffffffffffffffffffffffffffffff168160070160006101000a81548173ffffffffffffffffffffffffffffffffffffffff021916908373ffffffffffffffffffffffffffffffffffffffff1602179055506008820160009054906101000a900473ffffffffffffffffffffffffffffffffffffffff168160080160006101000a81548173ffffffffffffffffffffffffffffffffffffffff021916908373ffffffffffffffffffffffffffffffffffffffff1602179055506008820160149054906101000a900460ff168160080160146101000a81548160ff02191690831515021790555090505050505050565b60036020528160005260406000208181548110610e6057600080fd5b906000526020600020016000915091509054906101000a900473ffffffffffffffffffffffffffffffffffffffff1681565b60066020528060005260406000206000915054906101000a900460ff1681565b6000600a6000848152602001908152602001600020905060008160080160009054906101000a900473ffffffffffffffffffffffffffffffffffffffff16905060001515600660003373ffffffffffffffffffffffffffffffffffffffff1673ffffffffffffffffffffffffffffffffffffffff16815260200190815260200160002060009054906101000a900460ff16151514610f85576040517f08c379a0000000000000000000000000000000000000000000000000000000008152600401610f7c9061478d565b60405180910390fd5b600115158260080160149054906101000a900460ff16151514610fdd576040517f08c379a0000000000000000000000000000000000000000000000000000000008152600401610fd4906147f9565b60405180910390fd5b6001826004015414611024576040517f08c379a000000000000000000000000000000000000000000000000000000000815260040161101b90614865565b60405180910390fd5b3373ffffffffffffffffffffffffffffffffffffffff168260080160009054906101000a900473ffffffffffffffffffffffffffffffffffffffff1673ffffffffffffffffffffffffffffffffffffffff1614156110b7576040517f08c379a00000000000000000000000000000000000000000000000000000000081526004016110ae906148f7565b60405180910390fd5b600082600201548360060154856110ce9190614917565b6110d89190614971565b90508034101561111d576040517f08c379a000000000000000000000000000000000000000000000000000000000815260040161111490614a13565b60405180910390fd5b338360070160006101000a81548173ffffffffffffffffffffffffffffffffffffffff021916908373ffffffffffffffffffffffffffffffffffffffff1602179055508260050160008154809291906111759061468c565b9190505550600083600401819055506003600084600001548152602001908152602001600020339080600181540180825580915050600190039060005260206000200160009091909190916101000a81548173ffffffffffffffffffffffffffffffffffffffff021916908373ffffffffffffffffffffffffffffffffffffffff16021790555082600a600087815260200190815260200160002060008201548160000155600182018160010190805461122e906144fe565b611239929190613ac7565b50600282015481600201556003820181600301908054611258906144fe565b611263929190613ac7565b506004820154816004015560058201548160050155600682015481600601556007820160009054906101000a900473ffffffffffffffffffffffffffffffffffffffff168160070160006101000a81548173ffffffffffffffffffffffffffffffffffffffff021916908373ffffffffffffffffffffffffffffffffffffffff1602179055506008820160009054906101000a900473ffffffffffffffffffffffffffffffffffffffff168160080160006101000a81548173ffffffffffffffffffffffffffffffffffffffff021916908373ffffffffffffffffffffffffffffffffffffffff1602179055506008820160149054906101000a900460ff168160080160146101000a81548160ff02191690831515021790555090505084600760003373ffffffffffffffffffffffffffffffffffffffff1673ffffffffffffffffffffffffffffffffffffffff168152602001908152602001600020819055506001600660003373ffffffffffffffffffffffffffffffffffffffff1673ffffffffffffffffffffffffffffffffffffffff16815260200190815260200160002060006101000a81548160ff021916908315150217905550336008600087815260200190815260200160002060006101000a81548173ffffffffffffffffffffffffffffffffffffffff021916908373ffffffffffffffffffffffffffffffffffffffff16021790555060008360020154346114809190614a33565b90508273ffffffffffffffffffffffffffffffffffffffff166108fc829081150290604051600060405180830381858888f193505050501580156114c8573d6000803e3d6000fd5b5083600a60008881526020019081526020016000206000820154816000015560018201816001019080546114fb906144fe565b611506929190613ac7565b50600282015481600201556003820181600301908054611525906144fe565b611530929190613ac7565b506004820154816004015560058201548160050155600682015481600601556007820160009054906101000a900473ffffffffffffffffffffffffffffffffffffffff168160070160006101000a81548173ffffffffffffffffffffffffffffffffffffffff021916908373ffffffffffffffffffffffffffffffffffffffff1602179055506008820160009054906101000a900473ffffffffffffffffffffffffffffffffffffffff168160080160006101000a81548173ffffffffffffffffffffffffffffffffffffffff021916908373ffffffffffffffffffffffffffffffffffffffff1602179055506008820160149054906101000a900460ff168160080160146101000a81548160ff02191690831515021790555090505060005b6009805490508110156117885786600982815481106116725761167161462e565b5b9060005260206000209060090201600001541415611775576000600982815481106116a05761169f61462e565b5b90600052602060002090600902016004018190555033600982815481106116ca576116c961462e565b5b906000526020600020906009020160070160006101000a81548173ffffffffffffffffffffffffffffffffffffffff021916908373ffffffffffffffffffffffffffffffffffffffff16021790555060016009828154811061172f5761172e61462e565b5b90600052602060002090600902016005015461174b9190614971565b6009828154811061175f5761175e61462e565b5b9060005260206000209060090201600501819055505b80806117809061468c565b915050611650565b507f968c7830ab6fcb30d2d10f171a5916d53cd229c90c5effee3e1dadf5d91c2340600254856001018660020154876003018860060154336040516117d296959493929190614afc565b60405180910390a1505050505050565b60008060036000848152602001908152602001600020805490501161180657600080fd5b600360008381526020019081526020016000206001600360008581526020019081526020016000208054905061183c9190614a33565b8154811061184d5761184c61462e565b5b9060005260206000200160009054906101000a900473ffffffffffffffffffffffffffffffffffffffff169050919050565b60056020528060005260406000206000915090505481565b806000600a60008381526020019081526020016000209050600115158160080160149054906101000a900460ff16151514611907576040517f08c379a00000000000000000000000000000000000000000000000000000000081526004016118fe9061457c565b60405180910390fd5b826000600a600083815260200190815260200160002090503373ffffffffffffffffffffffffffffffffffffffff168160080160009054906101000a900473ffffffffffffffffffffffffffffffffffffffff1673ffffffffffffffffffffffffffffffffffffffff16146119b1576040517f08c379a00000000000000000000000000000000000000000000000000000000081526004016119a89061460e565b60405180910390fd5b6000600a600087815260200190815260200160002060405180610140016040529081600082015481526020016001820180546119ec906144fe565b80601f0160208091040260200160405190810160405280929190818152602001828054611a18906144fe565b8015611a655780601f10611a3a57610100808354040283529160200191611a65565b820191906000526020600020905b815481529060010190602001808311611a4857829003601f168201915b5050505050815260200160028201548152602001600382018054611a88906144fe565b80601f0160208091040260200160405190810160405280929190818152602001828054611ab4906144fe565b8015611b015780601f10611ad657610100808354040283529160200191611b01565b820191906000526020600020905b815481529060010190602001808311611ae457829003601f168201915b505050505081526020016004820154815260200160058201548152602001600682015481526020016007820160009054906101000a900473ffffffffffffffffffffffffffffffffffffffff1673ffffffffffffffffffffffffffffffffffffffff1673ffffffffffffffffffffffffffffffffffffffff1681526020016008820160009054906101000a900473ffffffffffffffffffffffffffffffffffffffff1673ffffffffffffffffffffffffffffffffffffffff1673ffffffffffffffffffffffffffffffffffffffff1681526020016008820160149054906101000a900460ff1615151515815250509050600181608001818152505080600a6000888152602001908152602001600020600082015181600001556020820151816001019080519060200190611c36929190613a41565b50604082015181600201556060820151816003019080519060200190611c5d929190613a41565b506080820151816004015560a0820151816005015560c0820151816006015560e08201518160070160006101000a81548173ffffffffffffffffffffffffffffffffffffffff021916908373ffffffffffffffffffffffffffffffffffffffff1602179055506101008201518160080160006101000a81548173ffffffffffffffffffffffffffffffffffffffff021916908373ffffffffffffffffffffffffffffffffffffffff1602179055506101208201518160080160146101000a81548160ff02191690831515021790555090505060005b600980549050811015611dab578660098281548110611d5457611d5361462e565b5b9060005260206000209060090201600001541415611d9857600160098281548110611d8257611d8161462e565b5b9060005260206000209060090201600401819055505b8080611da39061468c565b915050611d32565b50505050505050565b611dbc6138f4565b73ffffffffffffffffffffffffffffffffffffffff16611dda61236e565b73ffffffffffffffffffffffffffffffffffffffff1614611e30576040517f08c379a0000000000000000000000000000000000000000000000000000000008152600401611e2790614721565b60405180910390fd5b611e3a60006138fc565b565b60076020528060005260406000206000915090505481565b806000600a60008381526020019081526020016000209050600115158160080160149054906101000a900460ff16151514611ec4576040517f08c379a0000000000000000000000000000000000000000000000000000000008152600401611ebb9061457c565b60405180910390fd5b6000600a6000858152602001908152602001600020905060008160080160009054906101000a900473ffffffffffffffffffffffffffffffffffffffff16905060008260070160009054906101000a900473ffffffffffffffffffffffffffffffffffffffff1690508073ffffffffffffffffffffffffffffffffffffffff166108fc84600201549081150290604051600060405180830381858888f19350505050158015611f77573d6000803e3d6000fd5b506001836004018190555060008360070160006101000a81548173ffffffffffffffffffffffffffffffffffffffff021916908373ffffffffffffffffffffffffffffffffffffffff16021790555060006005600088815260200190815260200160002081905550600060066000600860008a815260200190815260200160002060009054906101000a900473ffffffffffffffffffffffffffffffffffffffff1673ffffffffffffffffffffffffffffffffffffffff1673ffffffffffffffffffffffffffffffffffffffff16815260200190815260200160002060006101000a81548160ff021916908315150217905550600060076000600860008a815260200190815260200160002060009054906101000a900473ffffffffffffffffffffffffffffffffffffffff1673ffffffffffffffffffffffffffffffffffffffff1673ffffffffffffffffffffffffffffffffffffffff1681526020019081526020016000208190555082600a6000888152602001908152602001600020600082015481600001556001820181600101908054612114906144fe565b61211f929190613ac7565b5060028201548160020155600382018160030190805461213e906144fe565b612149929190613ac7565b506004820154816004015560058201548160050155600682015481600601556007820160009054906101000a900473ffffffffffffffffffffffffffffffffffffffff168160070160006101000a81548173ffffffffffffffffffffffffffffffffffffffff021916908373ffffffffffffffffffffffffffffffffffffffff1602179055506008820160009054906101000a900473ffffffffffffffffffffffffffffffffffffffff168160080160006101000a81548173ffffffffffffffffffffffffffffffffffffffff021916908373ffffffffffffffffffffffffffffffffffffffff1602179055506008820160149054906101000a900460ff168160080160146101000a81548160ff02191690831515021790555090505060005b60098054905081101561234757866009828154811061228b5761228a61462e565b5b9060005260206000209060090201600001541415612334576001600982815481106122b9576122b861462e565b5b9060005260206000209060090201600401819055506000600982815481106122e4576122e361462e565b5b906000526020600020906009020160070160006101000a81548173ffffffffffffffffffffffffffffffffffffffff021916908373ffffffffffffffffffffffffffffffffffffffff1602179055505b808061233f9061468c565b915050612269565b50505050505050565b60025481565b60046020528060005260406000206000915090505481565b60008060009054906101000a900473ffffffffffffffffffffffffffffffffffffffff16905090565b600a6020528060005260406000206000915090508060000154908060010180546123c0906144fe565b80601f01602080910402602001604051908101604052809291908181526020018280546123ec906144fe565b80156124395780601f1061240e57610100808354040283529160200191612439565b820191906000526020600020905b81548152906001019060200180831161241c57829003601f168201915b505050505090806002015490806003018054612454906144fe565b80601f0160208091040260200160405190810160405280929190818152602001828054612480906144fe565b80156124cd5780601f106124a2576101008083540402835291602001916124cd565b820191906000526020600020905b8154815290600101906020018083116124b057829003601f168201915b5050505050908060040154908060050154908060060154908060070160009054906101000a900473ffffffffffffffffffffffffffffffffffffffff16908060080160009054906101000a900473ffffffffffffffffffffffffffffffffffffffff16908060080160149054906101000a900460ff1690508a565b806000600a60008381526020019081526020016000209050600115158160080160149054906101000a900460ff161515146125b8576040517f08c379a00000000000000000000000000000000000000000000000000000000081526004016125af9061457c565b60405180910390fd5b826000600a600083815260200190815260200160002090503373ffffffffffffffffffffffffffffffffffffffff168160080160009054906101000a900473ffffffffffffffffffffffffffffffffffffffff1673ffffffffffffffffffffffffffffffffffffffff1614612662576040517f08c379a00000000000000000000000000000000000000000000000000000000081526004016126599061460e565b60405180910390fd5b6000600a60008781526020019081526020016000209050600a60008781526020019081526020016000206000808201600090556001820160006126a59190613b54565b60028201600090556003820160006126bd9190613b54565b6004820160009055600582016000905560068201600090556007820160006101000a81549073ffffffffffffffffffffffffffffffffffffffff02191690556008820160006101000a81549073ffffffffffffffffffffffffffffffffffffffff02191690556008820160146101000a81549060ff0219169055505060008160080160146101000a81548160ff0219169083151502179055506002600081548092919061276990614b6b565b9190505550600060066000600860008a815260200190815260200160002060009054906101000a900473ffffffffffffffffffffffffffffffffffffffff1673ffffffffffffffffffffffffffffffffffffffff1673ffffffffffffffffffffffffffffffffffffffff16815260200190815260200160002060006101000a81548160ff021916908315150217905550600060076000600860008a815260200190815260200160002060009054906101000a900473ffffffffffffffffffffffffffffffffffffffff1673ffffffffffffffffffffffffffffffffffffffff1673ffffffffffffffffffffffffffffffffffffffff1681526020019081526020016000208190555080600a60008881526020019081526020016000206000820154816000015560018201816001019080546128a3906144fe565b6128ae929190613ac7565b506002820154816002015560038201816003019080546128cd906144fe565b6128d8929190613ac7565b506004820154816004015560058201548160050155600682015481600601556007820160009054906101000a900473ffffffffffffffffffffffffffffffffffffffff168160070160006101000a81548173ffffffffffffffffffffffffffffffffffffffff021916908373ffffffffffffffffffffffffffffffffffffffff1602179055506008820160009054906101000a900473ffffffffffffffffffffffffffffffffffffffff168160080160006101000a81548173ffffffffffffffffffffffffffffffffffffffff021916908373ffffffffffffffffffffffffffffffffffffffff1602179055506008820160149054906101000a900460ff168160080160146101000a81548160ff02191690831515021790555090505060005b600980549050811015612a84578660098281548110612a1a57612a1961462e565b5b9060005260206000209060090201600001541415612a7157600060098281548110612a4857612a4761462e565b5b906000526020600020906009020160080160146101000a81548160ff0219169083151502179055505b8080612a7c9061468c565b9150506129f8565b507f4fdc3fa1e322e203c893415fd9fce359600a29bee88fd068597eefa4bc1d1f1360405160405180910390a1505050505050565b60606009805480602002602001604051908101604052809291908181526020016000905b82821015612d2d57838290600052602060002090600902016040518061014001604052908160008201548152602001600182018054612b1b906144fe565b80601f0160208091040260200160405190810160405280929190818152602001828054612b47906144fe565b8015612b945780601f10612b6957610100808354040283529160200191612b94565b820191906000526020600020905b815481529060010190602001808311612b7757829003601f168201915b5050505050815260200160028201548152602001600382018054612bb7906144fe565b80601f0160208091040260200160405190810160405280929190818152602001828054612be3906144fe565b8015612c305780601f10612c0557610100808354040283529160200191612c30565b820191906000526020600020905b815481529060010190602001808311612c1357829003601f168201915b505050505081526020016004820154815260200160058201548152602001600682015481526020016007820160009054906101000a900473ffffffffffffffffffffffffffffffffffffffff1673ffffffffffffffffffffffffffffffffffffffff1673ffffffffffffffffffffffffffffffffffffffff1681526020016008820160009054906101000a900473ffffffffffffffffffffffffffffffffffffffff1673ffffffffffffffffffffffffffffffffffffffff1673ffffffffffffffffffffffffffffffffffffffff1681526020016008820160149054906101000a900460ff16151515158152505081526020019060010190612add565b50505050905090565b612d3e6138f4565b73ffffffffffffffffffffffffffffffffffffffff16612d5c61236e565b73ffffffffffffffffffffffffffffffffffffffff1614612db2576040517f08c379a0000000000000000000000000000000000000000000000000000000008152600401612da990614721565b60405180910390fd5b806000600a60008381526020019081526020016000209050600115158160080160149054906101000a900460ff16151514612e22576040517f08c379a0000000000000000000000000000000000000000000000000000000008152600401612e199061457c565b60405180910390fd5b6000600a600085815260200190815260200160002090507fffffffffffffffffffffffffffffffffffffffffffffffffffffffffffffffff816004018190555080600a6000868152602001908152602001600020600082015481600001556001820181600101908054612e94906144fe565b612e9f929190613ac7565b50600282015481600201556003820181600301908054612ebe906144fe565b612ec9929190613ac7565b506004820154816004015560058201548160050155600682015481600601556007820160009054906101000a900473ffffffffffffffffffffffffffffffffffffffff168160070160006101000a81548173ffffffffffffffffffffffffffffffffffffffff021916908373ffffffffffffffffffffffffffffffffffffffff1602179055506008820160009054906101000a900473ffffffffffffffffffffffffffffffffffffffff168160080160006101000a81548173ffffffffffffffffffffffffffffffffffffffff021916908373ffffffffffffffffffffffffffffffffffffffff1602179055506008820160149054906101000a900460ff168160080160146101000a81548160ff02191690831515021790555090505050505050565b806000600a60008381526020019081526020016000209050600115158160080160149054906101000a900460ff1615151461305c576040517f08c379a00000000000000000000000000000000000000000000000000000000081526004016130539061457c565b60405180910390fd5b826000600a600083815260200190815260200160002090503373ffffffffffffffffffffffffffffffffffffffff168160080160009054906101000a900473ffffffffffffffffffffffffffffffffffffffff1673ffffffffffffffffffffffffffffffffffffffff1614613106576040517f08c379a00000000000000000000000000000000000000000000000000000000081526004016130fd9061460e565b60405180910390fd5b6000600a600087815260200190815260200160002090507fffffffffffffffffffffffffffffffffffffffffffffffffffffffffffffffff816004018190555080600a6000888152602001908152602001600020600082015481600001556001820181600101908054613178906144fe565b613183929190613ac7565b506002820154816002015560038201816003019080546131a2906144fe565b6131ad929190613ac7565b506004820154816004015560058201548160050155600682015481600601556007820160009054906101000a900473ffffffffffffffffffffffffffffffffffffffff168160070160006101000a81548173ffffffffffffffffffffffffffffffffffffffff021916908373ffffffffffffffffffffffffffffffffffffffff1602179055506008820160009054906101000a900473ffffffffffffffffffffffffffffffffffffffff168160080160006101000a81548173ffffffffffffffffffffffffffffffffffffffff021916908373ffffffffffffffffffffffffffffffffffffffff1602179055506008820160149054906101000a900460ff168160080160146101000a81548160ff02191690831515021790555090505060005b6009805490508110156133655786600982815481106132ef576132ee61462e565b5b9060005260206000209060090201600001541415613352577fffffffffffffffffffffffffffffffffffffffffffffffffffffffffffffffff6009828154811061333c5761333b61462e565b5b9060005260206000209060090201600401819055505b808061335d9061468c565b9150506132cd565b50505050505050565b60008451116133b2576040517f08c379a00000000000000000000000000000000000000000000000000000000081526004016133a990614be1565b60405180910390fd5b600082116133f5576040517f08c379a00000000000000000000000000000000000000000000000000000000081526004016133ec90614c4d565b60405180910390fd5b6000835111613439576040517f08c379a000000000000000000000000000000000000000000000000000000000815260040161343090614cb9565b60405180910390fd5b600060019050600060016002546134509190614971565b6002819055506040518061014001604052806002548152602001878152602001858152602001868152602001838152602001828152602001848152602001600073ffffffffffffffffffffffffffffffffffffffff1681526020013373ffffffffffffffffffffffffffffffffffffffff16815260200160011515815250600a60006002548152602001908152602001600020600082015181600001556020820151816001019080519060200190613509929190613a41565b50604082015181600201556060820151816003019080519060200190613530929190613a41565b506080820151816004015560a0820151816005015560c0820151816006015560e08201518160070160006101000a81548173ffffffffffffffffffffffffffffffffffffffff021916908373ffffffffffffffffffffffffffffffffffffffff1602179055506101008201518160080160006101000a81548173ffffffffffffffffffffffffffffffffffffffff021916908373ffffffffffffffffffffffffffffffffffffffff1602179055506101208201518160080160146101000a81548160ff0219169083151502179055509050506009600a600060025481526020019081526020016000209080600181540180825580915050600190039060005260206000209060090201600090919091909150600082015481600001556001820181600101908054613660906144fe565b61366b929190613ac7565b5060028201548160020155600382018160030190805461368a906144fe565b613695929190613ac7565b506004820154816004015560058201548160050155600682015481600601556007820160009054906101000a900473ffffffffffffffffffffffffffffffffffffffff168160070160006101000a81548173ffffffffffffffffffffffffffffffffffffffff021916908373ffffffffffffffffffffffffffffffffffffffff1602179055506008820160009054906101000a900473ffffffffffffffffffffffffffffffffffffffff168160080160006101000a81548173ffffffffffffffffffffffffffffffffffffffff021916908373ffffffffffffffffffffffffffffffffffffffff1602179055506008820160149054906101000a900460ff168160080160146101000a81548160ff02191690831515021790555050507f306fe9e714f56212fcaf47ef0a03ffb7e1c9e9502fc2d64330e7d93c74f4e44760025487868887336040516137ec96959493929190614cd9565b60405180910390a1505050505050565b6138046138f4565b73ffffffffffffffffffffffffffffffffffffffff1661382261236e565b73ffffffffffffffffffffffffffffffffffffffff1614613878576040517f08c379a000000000000000000000000000000000000000000000000000000000815260040161386f90614721565b60405180910390fd5b600073ffffffffffffffffffffffffffffffffffffffff168173ffffffffffffffffffffffffffffffffffffffff1614156138e8576040517f08c379a00000000000000000000000000000000000000000000000000000000081526004016138df90614dba565b60405180910390fd5b6138f1816138fc565b50565b600033905090565b60008060009054906101000a900473ffffffffffffffffffffffffffffffffffffffff169050816000806101000a81548173ffffffffffffffffffffffffffffffffffffffff021916908373ffffffffffffffffffffffffffffffffffffffff1602179055508173ffffffffffffffffffffffffffffffffffffffff168173ffffffffffffffffffffffffffffffffffffffff167f8be0079c531659141344cd1fd0a4f28419497f9722a3daafe3b4186f6b6457e060405160405180910390a35050565b60405180610140016040528060008152602001606081526020016000815260200160608152602001600081526020016000815260200160008152602001600073ffffffffffffffffffffffffffffffffffffffff168152602001600073ffffffffffffffffffffffffffffffffffffffff1681526020016000151581525090565b828054613a4d906144fe565b90600052602060002090601f016020900481019282613a6f5760008555613ab6565b82601f10613a8857805160ff1916838001178555613ab6565b82800160010185558215613ab6579182015b82811115613ab5578251825591602001919060010190613a9a565b5b509050613ac39190613b94565b5090565b828054613ad3906144fe565b90600052602060002090601f016020900481019282613af55760008555613b43565b82601f10613b065780548555613b43565b82800160010185558215613b4357600052602060002091601f016020900482015b82811115613b42578254825591600101919060010190613b27565b5b509050613b509190613b94565b5090565b508054613b60906144fe565b6000825580601f10613b725750613b91565b601f016020900490600052602060002090810190613b909190613b94565b5b50565b5b80821115613bad576000816000905550600101613b95565b5090565b6000604051905090565b600080fd5b600080fd5b6000819050919050565b613bd881613bc5565b8114613be357600080fd5b50565b600081359050613bf581613bcf565b92915050565b600060208284031215613c1157613c10613bbb565b5b6000613c1f84828501613be6565b91505092915050565b613c3181613bc5565b82525050565b600081519050919050565b600082825260208201905092915050565b60005b83811015613c71578082015181840152602081019050613c56565b83811115613c80576000848401525b50505050565b6000601f19601f8301169050919050565b6000613ca282613c37565b613cac8185613c42565b9350613cbc818560208601613c53565b613cc581613c86565b840191505092915050565b6000819050919050565b613ce381613cd0565b82525050565b600073ffffffffffffffffffffffffffffffffffffffff82169050919050565b6000613d1482613ce9565b9050919050565b613d2481613d09565b82525050565b60008115159050919050565b613d3f81613d2a565b82525050565b600061014083016000830151613d5e6000860182613c28565b5060208301518482036020860152613d768282613c97565b9150506040830151613d8b6040860182613c28565b5060608301518482036060860152613da38282613c97565b9150506080830151613db86080860182613cda565b5060a0830151613dcb60a0860182613c28565b5060c0830151613dde60c0860182613c28565b5060e0830151613df160e0860182613d1b565b50610100830151613e06610100860182613d1b565b50610120830151613e1b610120860182613d36565b508091505092915050565b60006020820190508181036000830152613e408184613d45565b905092915050565b600080fd5b600080fd5b7f4e487b7100000000000000000000000000000000000000000000000000000000600052604160045260246000fd5b613e8a82613c86565b810181811067ffffffffffffffff82111715613ea957613ea8613e52565b5b80604052505050565b6000613ebc613bb1565b9050613ec88282613e81565b919050565b600067ffffffffffffffff821115613ee857613ee7613e52565b5b613ef182613c86565b9050602081019050919050565b82818337600083830152505050565b6000613f20613f1b84613ecd565b613eb2565b905082815260208101848484011115613f3c57613f3b613e4d565b5b613f47848285613efe565b509392505050565b600082601f830112613f6457613f63613e48565b5b8135613f74848260208601613f0d565b91505092915050565b600080600080600060a08688031215613f9957613f98613bbb565b5b6000613fa788828901613be6565b955050602086013567ffffffffffffffff811115613fc857613fc7613bc0565b5b613fd488828901613f4f565b9450506040613fe588828901613be6565b935050606086013567ffffffffffffffff81111561400657614005613bc0565b5b61401288828901613f4f565b925050608061402388828901613be6565b9150509295509295909350565b6000806040838503121561404757614046613bbb565b5b600061405585828601613be6565b925050602061406685828601613be6565b9150509250929050565b600061407b82613ce9565b9050919050565b61408b81614070565b82525050565b60006020820190506140a66000830184614082565b92915050565b6140b581614070565b81146140c057600080fd5b50565b6000813590506140d2816140ac565b92915050565b6000602082840312156140ee576140ed613bbb565b5b60006140fc848285016140c3565b91505092915050565b61410e81613d2a565b82525050565b60006020820190506141296000830184614105565b92915050565b61413881613bc5565b82525050565b6000602082019050614153600083018461412f565b92915050565b600082825260208201905092915050565b600061417582613c37565b61417f8185614159565b935061418f818560208601613c53565b61419881613c86565b840191505092915050565b6141ac81613cd0565b82525050565b6141bb81613d09565b82525050565b6000610140820190506141d7600083018d61412f565b81810360208301526141e9818c61416a565b90506141f8604083018b61412f565b818103606083015261420a818a61416a565b905061421960808301896141a3565b61422660a083018861412f565b61423360c083018761412f565b61424060e08301866141b2565b61424e6101008301856141b2565b61425c610120830184614105565b9b9a5050505050505050505050565b600081519050919050565b600082825260208201905092915050565b6000819050602082019050919050565b6000610140830160008301516142b06000860182613c28565b50602083015184820360208601526142c88282613c97565b91505060408301516142dd6040860182613c28565b50606083015184820360608601526142f58282613c97565b915050608083015161430a6080860182613cda565b5060a083015161431d60a0860182613c28565b5060c083015161433060c0860182613c28565b5060e083015161434360e0860182613d1b565b50610100830151614358610100860182613d1b565b5061012083015161436d610120860182613d36565b508091505092915050565b60006143848383614297565b905092915050565b6000602082019050919050565b60006143a48261426b565b6143ae8185614276565b9350836020820285016143c085614287565b8060005b858110156143fc57848403895281516143dd8582614378565b94506143e88361438c565b925060208a019950506001810190506143c4565b50829750879550505050505092915050565b600060208201905081810360008301526144288184614399565b905092915050565b6000806000806080858703121561444a57614449613bbb565b5b600085013567ffffffffffffffff81111561446857614467613bc0565b5b61447487828801613f4f565b945050602085013567ffffffffffffffff81111561449557614494613bc0565b5b6144a187828801613f4f565b93505060406144b287828801613be6565b92505060606144c387828801613be6565b91505092959194509250565b7f4e487b7100000000000000000000000000000000000000000000000000000000600052602260045260246000fd5b6000600282049050600182168061451657607f821691505b6020821081141561452a576145296144cf565b5b50919050565b7f5468697320646f6573206e6f7420657869737400000000000000000000000000600082015250565b6000614566601383614159565b915061457182614530565b602082019050919050565b6000602082019050818103600083015261459581614559565b9050919050565b7f596f7520617265206e6f74207468652063726561746f72206f6620746869732060008201527f52656e7400000000000000000000000000000000000000000000000000000000602082015250565b60006145f8602483614159565b91506146038261459c565b604082019050919050565b60006020820190508181036000830152614627816145eb565b9050919050565b7f4e487b7100000000000000000000000000000000000000000000000000000000600052603260045260246000fd5b7f4e487b7100000000000000000000000000000000000000000000000000000000600052601160045260246000fd5b600061469782613bc5565b91507fffffffffffffffffffffffffffffffffffffffffffffffffffffffffffffffff8214156146ca576146c961465d565b5b600182019050919050565b7f4f776e61626c653a2063616c6c6572206973206e6f7420746865206f776e6572600082015250565b600061470b602083614159565b9150614716826146d5565b602082019050919050565b6000602082019050818103600083015261473a816146fe565b9050919050565b7f596f752061726520616c72656164792072656e74696e67206120636172000000600082015250565b6000614777601d83614159565b915061478282614741565b602082019050919050565b600060208201905081810360008301526147a68161476a565b9050919050565b7f546869732043617220646f6573206e6f74206578697374000000000000000000600082015250565b60006147e3601783614159565b91506147ee826147ad565b602082019050919050565b60006020820190508181036000830152614812816147d6565b9050919050565b7f5468652076656869636c65206973206e6f7420617661696c61626c6500000000600082015250565b600061484f601c83614159565b915061485a82614819565b602082019050919050565b6000602082019050818103600083015261487e81614842565b9050919050565b7f596f752061726520746865206f776e6572206f662074686973206361722c205560008201527f736520616e6f74686572206163636f756e7420746f2072656e74000000000000602082015250565b60006148e1603a83614159565b91506148ec82614885565b604082019050919050565b60006020820190508181036000830152614910816148d4565b9050919050565b600061492282613bc5565b915061492d83613bc5565b9250817fffffffffffffffffffffffffffffffffffffffffffffffffffffffffffffffff04831182151516156149665761496561465d565b5b828202905092915050565b600061497c82613bc5565b915061498783613bc5565b9250827fffffffffffffffffffffffffffffffffffffffffffffffffffffffffffffffff038211156149bc576149bb61465d565b5b828201905092915050565b7f54686520616d6f756e7420646f6573206e6f7420636f76657220666565730000600082015250565b60006149fd601e83614159565b9150614a08826149c7565b602082019050919050565b60006020820190508181036000830152614a2c816149f0565b9050919050565b6000614a3e82613bc5565b9150614a4983613bc5565b925082821015614a5c57614a5b61465d565b5b828203905092915050565b60008190508160005260206000209050919050565b60008154614a89816144fe565b614a938186614159565b94506001821660008114614aae5760018114614ac057614af3565b60ff1983168652602086019350614af3565b614ac985614a67565b60005b83811015614aeb57815481890152600182019150602081019050614acc565b808801955050505b50505092915050565b600060c082019050614b11600083018961412f565b8181036020830152614b238188614a7c565b9050614b32604083018761412f565b8181036060830152614b448186614a7c565b9050614b53608083018561412f565b614b6060a08301846141b2565b979650505050505050565b6000614b7682613bc5565b91506000821415614b8a57614b8961465d565b5b600182039050919050565b7f506c6561736520696e707574204e616d65000000000000000000000000000000600082015250565b6000614bcb601183614159565b9150614bd682614b95565b602082019050919050565b60006020820190508181036000830152614bfa81614bbe565b9050919050565b7f506c6561736520696e70757420612073656375726974792076616c7565000000600082015250565b6000614c37601d83614159565b9150614c4282614c01565b602082019050919050565b60006020820190508181036000830152614c6681614c2a565b9050919050565b7f506c6561736520696e7075742061206465736372697074696f6e000000000000600082015250565b6000614ca3601a83614159565b9150614cae82614c6d565b602082019050919050565b60006020820190508181036000830152614cd281614c96565b9050919050565b600060c082019050614cee600083018961412f565b8181036020830152614d00818861416a565b9050614d0f604083018761412f565b8181036060830152614d21818661416a565b9050614d30608083018561412f565b614d3d60a08301846141b2565b979650505050505050565b7f4f776e61626c653a206e6577206f776e657220697320746865207a65726f206160008201527f6464726573730000000000000000000000000000000000000000000000000000602082015250565b6000614da4602683614159565b9150614daf82614d48565b604082019050919050565b60006020820190508181036000830152614dd381614d97565b905091905056fea2646970667358221220551180f19a0a03e6b1fa30737922f49fce0ed45eac7ef55817917b7bf58ebd3464736f6c634300080a0033",
  "immutableReferences": {},
  "source": "// SPDX-License-Identifier: GPL-3.0\r\npragma solidity ^0.8.0;\r\npragma experimental ABIEncoderV2;\r\n\r\nimport \"../node_modules/@openzeppelin/contracts/access/Ownable.sol\";\r\n\r\ncontract Rent is Ownable {\r\n    struct RentDetail {\r\n        uint256 rentId; // id of Vehicle\r\n        string name; // short name of Vehicle\r\n        uint256 security; // security money\r\n        string description; // full description about vehicle\r\n        int256 availability; //-1:maintenance 0:rented 1:available\r\n        uint256 popularity; // how many times vehicle rented\r\n        uint256 rentPerDay;\r\n        address payable person;\r\n        address payable owner;\r\n        bool exists;\r\n    }\r\n\r\n    event RentCreated(\r\n        uint256 rentId,\r\n        string name,\r\n        uint256 security,\r\n        string description,\r\n        uint256 rentPerDay,\r\n        address payable person\r\n    );\r\n\r\n    event RentTaken(\r\n        uint256 rentId,\r\n        string name,\r\n        uint256 security,\r\n        string description,\r\n        uint256 rentPerDay,\r\n        address payable person\r\n    );\r\n\r\n    event RentDeleted();\r\n\r\n    address payable manager;\r\n    uint256 public rentCount;\r\n\r\n    mapping(uint256 => address[]) public pastRents; // list of people who rented this vehicle\r\n    mapping(uint256 => uint256) public rentingTime; //time at which he take vehicle at rent\r\n    mapping(uint256 => uint256) public timeOfRent; // amount of time for rent\r\n    mapping(address => bool) public isRenting;\r\n    mapping(address => uint256) public rented;\r\n    mapping(uint256 => address) rentedBy;\r\n    RentDetail[] allRents;\r\n    mapping(uint256 => RentDetail) public rentDetails;\r\n\r\n\r\n    modifier rentExists( uint id){\r\n       RentDetail storage _rentDetail = rentDetails[id];\r\n        require(_rentDetail.exists == true, \"This does not exist\");\r\n        _;\r\n    }\r\n\r\n    modifier isRentOwner(uint id){\r\n         RentDetail storage _rentDetail = rentDetails[id];\r\n         require(\r\n            _rentDetail.owner == msg.sender,\r\n            \"You are not the creator of this Rent\"\r\n        );\r\n        _;\r\n    }\r\n\r\n    constructor()  {\r\n    \r\n        rentCount = 0;\r\n    }\r\n\r\n    function createRent(\r\n        string memory _name,\r\n        string memory _description,\r\n        uint256 _security,\r\n        uint256 _rentPerDay\r\n    ) public {\r\n        require(bytes(_name).length > 0, \"Please input Name\");\r\n        require(_security > 0, \"Please input a security value\");\r\n        require(bytes(_description).length > 0, \"Please input a description\");\r\n        // require(_security + _rentPerDay > 0);\r\n        // require(msg.sender == manager);\r\n        int256 availability = 1;\r\n        uint256 popularity = 0;\r\n\r\n        rentCount = rentCount + 1;\r\n\r\n        rentDetails[rentCount] = RentDetail(\r\n            rentCount,\r\n            _name,\r\n            _security,\r\n            _description,\r\n            availability,\r\n            popularity,\r\n            _rentPerDay,\r\n             payable(address(0)),\r\n             payable(msg.sender),\r\n            true\r\n        );\r\n        allRents.push(rentDetails[rentCount]);\r\n        emit RentCreated(\r\n            rentCount,\r\n            _name,\r\n            _security,\r\n            _description,\r\n            _rentPerDay,\r\n            payable(msg.sender)\r\n        );\r\n    }\r\n\r\n    function editDetails(\r\n        uint256 _id,\r\n        string memory newname,\r\n        uint256 newsecurity,\r\n        string memory newDescription,\r\n        uint256 newrentPerDay\r\n    ) public rentExists(_id) isRentOwner(_id) {\r\n        RentDetail storage _rentDetail = rentDetails[_id];\r\n       \r\n        _rentDetail.name = newname;\r\n        _rentDetail.security = newsecurity;\r\n        _rentDetail.description = newDescription;\r\n        _rentDetail.rentPerDay = newrentPerDay;\r\n\r\n        /// update mapping\r\n        rentDetails[_id] = _rentDetail;\r\n\r\n        // update array\r\n        for (uint256 i; i < allRents.length; i++) {\r\n            if (allRents[i].rentId == _id) {\r\n                allRents[i].name = newname;\r\n                allRents[i].security = newsecurity;\r\n                allRents[i].description = newDescription;\r\n                allRents[i].rentPerDay = newrentPerDay;\r\n            }\r\n        }\r\n    }\r\n\r\n    function takeOnMaintenance(uint256 _id) public onlyOwner  rentExists(_id){\r\n        RentDetail storage _rentDetail = rentDetails[_id];\r\n        _rentDetail.availability = -1;\r\n        rentDetails[_id] = _rentDetail;\r\n    }\r\n\r\n    function returnFromMaintenance(uint256 _id) public onlyOwner rentExists(_id) {\r\n        RentDetail storage _rentDetail = rentDetails[_id];\r\n        _rentDetail.availability = 1;\r\n        rentDetails[_id] = _rentDetail;\r\n    }\r\n\r\n    function takeRent(\r\n        uint256 _id,\r\n        // uint256 _rentingTime,\r\n        uint256 _timeOfRent\r\n    ) public payable {\r\n        RentDetail storage _rentDetail = rentDetails[_id];\r\n        address payable _owner = _rentDetail.owner;\r\n        require(\r\n            isRenting[msg.sender] == false,\r\n            \"You are already renting a car\"\r\n        );\r\n        require(_rentDetail.exists == true, \"This Car does not exist\");\r\n\r\n        require(_rentDetail.availability == 1, \"The vehicle is not available\");\r\n        require(\r\n            _rentDetail.owner != msg.sender,\r\n            \"You are the owner of this car, Use another account to rent\"\r\n        );\r\n        // rentingTime[_rentDetail.rentId] = _rentingTime;\r\n        uint256 total = _timeOfRent *\r\n            _rentDetail.rentPerDay +\r\n            _rentDetail.security;\r\n        require(msg.value >= total, \"The amount does not cover fees\");\r\n        _rentDetail.person = payable(msg.sender);\r\n        _rentDetail.popularity++;\r\n        _rentDetail.availability = 0;\r\n        pastRents[_rentDetail.rentId].push(msg.sender);\r\n        rentDetails[_id] = _rentDetail;\r\n\r\n        rented[msg.sender] = _id;\r\n        isRenting[msg.sender] = true;\r\n        rentedBy[_id] = msg.sender;\r\n\r\n        // transfer funds\r\n        uint256 toTransfer = (msg.value - _rentDetail.security);\r\n        payable(_owner).transfer(toTransfer);\r\n\r\n        // update mapping\r\n        rentDetails[_id] = _rentDetail;\r\n\r\n        // Update array\r\n        for (uint256 i; i < allRents.length; i++) {\r\n            if (allRents[i].rentId == _id) {\r\n                allRents[i].availability = 0;\r\n                allRents[i].person = payable(msg.sender);\r\n                allRents[i].popularity = allRents[i].popularity + 1;\r\n            }\r\n        }\r\n        emit RentTaken(\r\n            rentCount,\r\n            _rentDetail.name,\r\n            _rentDetail.security,\r\n            _rentDetail.description,\r\n            _rentDetail.rentPerDay,\r\n            payable(msg.sender)\r\n        );\r\n    }\r\n\r\n    function returnRent(uint256 _id)  public payable rentExists(_id) {\r\n        RentDetail storage _rentDetail = rentDetails[_id];\r\n        address payable _owner = _rentDetail.owner;\r\n        address payable _person = _rentDetail.person;\r\n\r\n        // transfer security back to leaser\r\n        _person.transfer(_rentDetail.security);\r\n\r\n        _rentDetail.availability = 1;\r\n        _rentDetail.person = payable(address(0));\r\n\r\n        // update\r\n        timeOfRent[_id] = 0;\r\n        isRenting[rentedBy[_id]] = false;\r\n        rented[rentedBy[_id]] = 0;\r\n\r\n        // update mapping\r\n        rentDetails[_id] = _rentDetail;\r\n\r\n        // Update array\r\n        for (uint256 i; i < allRents.length; i++) {\r\n            if (allRents[i].rentId == _id) {\r\n                allRents[i].availability = 1;\r\n                allRents[i].person = payable(address(0));\r\n            }\r\n        }\r\n    }\r\n\r\n    function getCurrentLessor(uint256 _id) public view returns (address) {\r\n        require(pastRents[_id].length > 0);\r\n        return pastRents[_id][pastRents[_id].length - 1];\r\n    }\r\n\r\n    function deleteRent(uint256 _id) public rentExists(_id) isRentOwner(_id)  {\r\n        RentDetail storage _rentDetail = rentDetails[_id];\r\n      \r\n        delete rentDetails[_id];\r\n        _rentDetail.exists = false;\r\n        rentCount--;\r\n        isRenting[rentedBy[_id]] = false;\r\n        rented[rentedBy[_id]] = 0;\r\n        rentDetails[_id] = _rentDetail;\r\n        for (uint256 i; i < allRents.length; i++) {\r\n            if (allRents[i].rentId == _id) {\r\n                allRents[i].exists = false;\r\n            }\r\n        }\r\n        emit RentDeleted();\r\n    }\r\n\r\n    function getAllRent() public view returns (RentDetail[] memory) {\r\n        return allRents;\r\n    }\r\n\r\n    function getRent(uint256 _id) public view returns (RentDetail memory) {\r\n        return rentDetails[_id];\r\n    }\r\n\r\n    function takeToMaintenance(uint256 _id) public rentExists(_id) isRentOwner(_id) {\r\n        RentDetail storage _rentDetail = rentDetails[_id];\r\n       \r\n\r\n        _rentDetail.availability = -1;\r\n        // update mapping\r\n        rentDetails[_id] = _rentDetail;\r\n\r\n        // Update array\r\n        for (uint256 i; i < allRents.length; i++) {\r\n            if (allRents[i].rentId == _id) {\r\n                allRents[i].availability = -1;\r\n            }\r\n        }\r\n    }\r\n\r\n    function removeFromMaintenance(uint256 _id) public rentExists(_id) isRentOwner(_id) {\r\n        RentDetail memory _rentDetail = rentDetails[_id];\r\n        \r\n\r\n        _rentDetail.availability = 1;\r\n        // update mapping\r\n        rentDetails[_id] = _rentDetail;\r\n\r\n        // Update array\r\n        for (uint256 i; i < allRents.length; i++) {\r\n            if (allRents[i].rentId == _id) {\r\n                allRents[i].availability = 1;\r\n            }\r\n        }\r\n    }\r\n}\r\n",
  "sourcePath": "/Users/onyejivictor/Documents/code/consensys/v-rent 3/contracts/Rent.sol",
  "compiler": {
    "name": "solc",
    "version": "0.8.10+commit.fc410830.Emscripten.clang"
  },
  "schemaVersion": "3.4.1",
  "updatedAt": "2021-11-29T07:32:48.912Z",
  "networkType": "ethereum",
  "devdoc": {
    "kind": "dev",
    "methods": {
      "owner()": {
        "details": "Returns the address of the current owner."
      },
      "renounceOwnership()": {
        "details": "Leaves the contract without owner. It will not be possible to call `onlyOwner` functions anymore. Can only be called by the current owner. NOTE: Renouncing ownership will leave the contract without an owner, thereby removing any functionality that is only available to the owner."
      },
      "transferOwnership(address)": {
        "details": "Transfers ownership of the contract to a new account (`newOwner`). Can only be called by the current owner."
      }
    },
    "version": 1
  },
  "userdoc": {
    "kind": "user",
    "methods": {},
    "version": 1
  }
}