{
  "contractName": "Rent",
  "abi": [
    {
      "inputs": [],
      "payable": false,
      "stateMutability": "nonpayable",
      "type": "constructor"
    },
    {
      "anonymous": false,
      "inputs": [
        {
          "indexed": false,
          "internalType": "uint256",
          "name": "rentId",
          "type": "uint256"
        },
        {
          "indexed": false,
          "internalType": "string",
          "name": "name",
          "type": "string"
        },
        {
          "indexed": false,
          "internalType": "uint256",
          "name": "security",
          "type": "uint256"
        },
        {
          "indexed": false,
          "internalType": "string",
          "name": "description",
          "type": "string"
        },
        {
          "indexed": false,
          "internalType": "uint256",
          "name": "rentPerDay",
          "type": "uint256"
        },
        {
          "indexed": false,
          "internalType": "address payable",
          "name": "person",
          "type": "address"
        }
      ],
      "name": "RentCreated",
      "type": "event"
    },
    {
      "anonymous": false,
      "inputs": [],
      "name": "RentDeleted",
      "type": "event"
    },
    {
      "anonymous": false,
      "inputs": [
        {
          "indexed": false,
          "internalType": "uint256",
          "name": "rentId",
          "type": "uint256"
        },
        {
          "indexed": false,
          "internalType": "string",
          "name": "name",
          "type": "string"
        },
        {
          "indexed": false,
          "internalType": "uint256",
          "name": "security",
          "type": "uint256"
        },
        {
          "indexed": false,
          "internalType": "string",
          "name": "description",
          "type": "string"
        },
        {
          "indexed": false,
          "internalType": "uint256",
          "name": "rentPerDay",
          "type": "uint256"
        },
        {
          "indexed": false,
          "internalType": "address payable",
          "name": "person",
          "type": "address"
        }
      ],
      "name": "RentTaken",
      "type": "event"
    },
    {
      "constant": true,
      "inputs": [
        {
          "internalType": "address",
          "name": "",
          "type": "address"
        }
      ],
      "name": "isRenting",
      "outputs": [
        {
          "internalType": "bool",
          "name": "",
          "type": "bool"
        }
      ],
      "payable": false,
      "stateMutability": "view",
      "type": "function"
    },
    {
      "constant": true,
      "inputs": [
        {
          "internalType": "uint256",
          "name": "",
          "type": "uint256"
        },
        {
          "internalType": "uint256",
          "name": "",
          "type": "uint256"
        }
      ],
      "name": "pastRents",
      "outputs": [
        {
          "internalType": "address",
          "name": "",
          "type": "address"
        }
      ],
      "payable": false,
      "stateMutability": "view",
      "type": "function"
    },
    {
      "constant": true,
      "inputs": [],
      "name": "rentCount",
      "outputs": [
        {
          "internalType": "uint256",
          "name": "",
          "type": "uint256"
        }
      ],
      "payable": false,
      "stateMutability": "view",
      "type": "function"
    },
    {
      "constant": true,
      "inputs": [
        {
          "internalType": "uint256",
          "name": "",
          "type": "uint256"
        }
      ],
      "name": "rentDetails",
      "outputs": [
        {
          "internalType": "uint256",
          "name": "rentId",
          "type": "uint256"
        },
        {
          "internalType": "string",
          "name": "name",
          "type": "string"
        },
        {
          "internalType": "uint256",
          "name": "security",
          "type": "uint256"
        },
        {
          "internalType": "string",
          "name": "description",
          "type": "string"
        },
        {
          "internalType": "int256",
          "name": "availability",
          "type": "int256"
        },
        {
          "internalType": "uint256",
          "name": "popularity",
          "type": "uint256"
        },
        {
          "internalType": "uint256",
          "name": "rentPerDay",
          "type": "uint256"
        },
        {
          "internalType": "address payable",
          "name": "person",
          "type": "address"
        },
        {
          "internalType": "address payable",
          "name": "owner",
          "type": "address"
        },
        {
          "internalType": "bool",
          "name": "exists",
          "type": "bool"
        }
      ],
      "payable": false,
      "stateMutability": "view",
      "type": "function"
    },
    {
      "constant": true,
      "inputs": [
        {
          "internalType": "address",
          "name": "",
          "type": "address"
        }
      ],
      "name": "rented",
      "outputs": [
        {
          "internalType": "uint256",
          "name": "",
          "type": "uint256"
        }
      ],
      "payable": false,
      "stateMutability": "view",
      "type": "function"
    },
    {
      "constant": true,
      "inputs": [
        {
          "internalType": "uint256",
          "name": "",
          "type": "uint256"
        }
      ],
      "name": "rentingTime",
      "outputs": [
        {
          "internalType": "uint256",
          "name": "",
          "type": "uint256"
        }
      ],
      "payable": false,
      "stateMutability": "view",
      "type": "function"
    },
    {
      "constant": true,
      "inputs": [
        {
          "internalType": "uint256",
          "name": "",
          "type": "uint256"
        }
      ],
      "name": "timeOfRent",
      "outputs": [
        {
          "internalType": "uint256",
          "name": "",
          "type": "uint256"
        }
      ],
      "payable": false,
      "stateMutability": "view",
      "type": "function"
    },
    {
      "constant": false,
      "inputs": [
        {
          "internalType": "string",
          "name": "_name",
          "type": "string"
        },
        {
          "internalType": "string",
          "name": "_description",
          "type": "string"
        },
        {
          "internalType": "uint256",
          "name": "_security",
          "type": "uint256"
        },
        {
          "internalType": "uint256",
          "name": "_rentPerDay",
          "type": "uint256"
        }
      ],
      "name": "createRent",
      "outputs": [],
      "payable": false,
      "stateMutability": "nonpayable",
      "type": "function"
    },
    {
      "constant": false,
      "inputs": [
        {
          "internalType": "uint256",
          "name": "_id",
          "type": "uint256"
        },
        {
          "internalType": "string",
          "name": "newname",
          "type": "string"
        },
        {
          "internalType": "uint256",
          "name": "newsecurity",
          "type": "uint256"
        },
        {
          "internalType": "string",
          "name": "newDescription",
          "type": "string"
        },
        {
          "internalType": "uint256",
          "name": "newrentPerDay",
          "type": "uint256"
        }
      ],
      "name": "editDetails",
      "outputs": [],
      "payable": false,
      "stateMutability": "nonpayable",
      "type": "function"
    },
    {
      "constant": false,
      "inputs": [
        {
          "internalType": "uint256",
          "name": "_id",
          "type": "uint256"
        }
      ],
      "name": "takeOnMaintenance",
      "outputs": [],
      "payable": false,
      "stateMutability": "nonpayable",
      "type": "function"
    },
    {
      "constant": false,
      "inputs": [
        {
          "internalType": "uint256",
          "name": "_id",
          "type": "uint256"
        }
      ],
      "name": "returnFromMaintenance",
      "outputs": [],
      "payable": false,
      "stateMutability": "nonpayable",
      "type": "function"
    },
    {
      "constant": false,
      "inputs": [
        {
          "internalType": "uint256",
          "name": "_id",
          "type": "uint256"
        },
        {
          "internalType": "uint256",
          "name": "_timeOfRent",
          "type": "uint256"
        }
      ],
      "name": "takeRent",
      "outputs": [],
      "payable": true,
      "stateMutability": "payable",
      "type": "function"
    },
    {
      "constant": false,
      "inputs": [
        {
          "internalType": "uint256",
          "name": "_id",
          "type": "uint256"
        }
      ],
      "name": "returnRent",
      "outputs": [],
      "payable": true,
      "stateMutability": "payable",
      "type": "function"
    },
    {
      "constant": true,
      "inputs": [
        {
          "internalType": "uint256",
          "name": "_id",
          "type": "uint256"
        }
      ],
      "name": "getCurrentLessor",
      "outputs": [
        {
          "internalType": "address",
          "name": "",
          "type": "address"
        }
      ],
      "payable": false,
      "stateMutability": "view",
      "type": "function"
    },
    {
      "constant": false,
      "inputs": [
        {
          "internalType": "uint256",
          "name": "_id",
          "type": "uint256"
        }
      ],
      "name": "deleteRent",
      "outputs": [],
      "payable": false,
      "stateMutability": "nonpayable",
      "type": "function"
    },
    {
      "constant": true,
      "inputs": [],
      "name": "getAllRent",
      "outputs": [
        {
          "components": [
            {
              "internalType": "uint256",
              "name": "rentId",
              "type": "uint256"
            },
            {
              "internalType": "string",
              "name": "name",
              "type": "string"
            },
            {
              "internalType": "uint256",
              "name": "security",
              "type": "uint256"
            },
            {
              "internalType": "string",
              "name": "description",
              "type": "string"
            },
            {
              "internalType": "int256",
              "name": "availability",
              "type": "int256"
            },
            {
              "internalType": "uint256",
              "name": "popularity",
              "type": "uint256"
            },
            {
              "internalType": "uint256",
              "name": "rentPerDay",
              "type": "uint256"
            },
            {
              "internalType": "address payable",
              "name": "person",
              "type": "address"
            },
            {
              "internalType": "address payable",
              "name": "owner",
              "type": "address"
            },
            {
              "internalType": "bool",
              "name": "exists",
              "type": "bool"
            }
          ],
          "internalType": "struct Rent.RentDetail[]",
          "name": "",
          "type": "tuple[]"
        }
      ],
      "payable": false,
      "stateMutability": "view",
      "type": "function"
    },
    {
      "constant": true,
      "inputs": [
        {
          "internalType": "uint256",
          "name": "_id",
          "type": "uint256"
        }
      ],
      "name": "getRent",
      "outputs": [
        {
          "components": [
            {
              "internalType": "uint256",
              "name": "rentId",
              "type": "uint256"
            },
            {
              "internalType": "string",
              "name": "name",
              "type": "string"
            },
            {
              "internalType": "uint256",
              "name": "security",
              "type": "uint256"
            },
            {
              "internalType": "string",
              "name": "description",
              "type": "string"
            },
            {
              "internalType": "int256",
              "name": "availability",
              "type": "int256"
            },
            {
              "internalType": "uint256",
              "name": "popularity",
              "type": "uint256"
            },
            {
              "internalType": "uint256",
              "name": "rentPerDay",
              "type": "uint256"
            },
            {
              "internalType": "address payable",
              "name": "person",
              "type": "address"
            },
            {
              "internalType": "address payable",
              "name": "owner",
              "type": "address"
            },
            {
              "internalType": "bool",
              "name": "exists",
              "type": "bool"
            }
          ],
          "internalType": "struct Rent.RentDetail",
          "name": "",
          "type": "tuple"
        }
      ],
      "payable": false,
      "stateMutability": "view",
      "type": "function"
    },
    {
      "constant": false,
      "inputs": [
        {
          "internalType": "uint256",
          "name": "_id",
          "type": "uint256"
        }
      ],
      "name": "takeToMaintenance",
      "outputs": [],
      "payable": false,
      "stateMutability": "nonpayable",
      "type": "function"
    },
    {
      "constant": false,
      "inputs": [
        {
          "internalType": "uint256",
          "name": "_id",
          "type": "uint256"
        }
      ],
      "name": "removeFromMaintenance",
      "outputs": [],
      "payable": false,
      "stateMutability": "nonpayable",
      "type": "function"
    }
  ],
  "bytecode": "0x608060405234801561001057600080fd5b50336000806101000a81548173ffffffffffffffffffffffffffffffffffffffff021916908373ffffffffffffffffffffffffffffffffffffffff160217905550600060018190555061442a806100686000396000f3fe6080604052600436106101145760003560e01c806373294f0f116100a0578063a48c9a7611610064578063a48c9a76146103e8578063a9bea26114610411578063ad406c161461043c578063beda82c314610465578063de30d1c71461048e57610114565b806373294f0f146102e157806376efe8561461031e5780637c2654f61461033a5780638b9b836714610365578063a1d035bd146103a257610114565b806331d11a29116100e757806331d11a29146101e557806335528ad4146102225780633584206f1461023e5780634750f3ff1461027b5780634b5cd626146102b857610114565b8063037d94021461011957806319f66031146101565780631bfbb3321461017f5780631ef9a82d146101a8575b600080fd5b34801561012557600080fd5b50610140600480360361013b919081019061365c565b6104b7565b60405161014d919061405e565b60405180910390f35b34801561016257600080fd5b5061017d60048036036101789190810190613685565b610722565b005b34801561018b57600080fd5b506101a660048036036101a1919081019061365c565b610a9c565b005b3480156101b457600080fd5b506101cf60048036036101ca919081019061372c565b610cae565b6040516101dc9190613ea6565b60405180910390f35b3480156101f157600080fd5b5061020c600480360361020791908101906135a0565b610cf9565b6040516102199190613ee3565b60405180910390f35b61023c6004803603610237919081019061372c565b610d19565b005b34801561024a57600080fd5b506102656004803603610260919081019061365c565b611619565b6040516102729190613ea6565b60405180910390f35b34801561028757600080fd5b506102a2600480360361029d919081019061365c565b6116a6565b6040516102af9190614080565b60405180910390f35b3480156102c457600080fd5b506102df60048036036102da919081019061365c565b6116be565b005b3480156102ed57600080fd5b50610308600480360361030391908101906135a0565b6119e9565b6040516103159190614080565b60405180910390f35b6103386004803603610333919081019061365c565b611a01565b005b34801561034657600080fd5b5061034f611ed8565b60405161035c9190614080565b60405180910390f35b34801561037157600080fd5b5061038c6004803603610387919081019061365c565b611ede565b6040516103999190614080565b60405180910390f35b3480156103ae57600080fd5b506103c960048036036103c4919081019061365c565b611ef6565b6040516103df9a9998979695949392919061410a565b60405180910390f35b3480156103f457600080fd5b5061040f600480360361040a919081019061365c565b6120c7565b005b34801561041d57600080fd5b506104266125fb565b6040516104339190613ec1565b60405180910390f35b34801561044857600080fd5b50610463600480360361045e919081019061365c565b612898565b005b34801561047157600080fd5b5061048c6004803603610487919081019061365c565b612ac9565b005b34801561049a57600080fd5b506104b560048036036104b091908101906135c9565b612e13565b005b6104bf6132ad565b600960008381526020019081526020016000206040518061014001604052908160008201548152602001600182018054600181600116156101000203166002900480601f0160208091040260200160405190810160405280929190818152602001828054600181600116156101000203166002900480156105815780601f1061055657610100808354040283529160200191610581565b820191906000526020600020905b81548152906001019060200180831161056457829003601f168201915b5050505050815260200160028201548152602001600382018054600181600116156101000203166002900480601f01602080910402602001604051908101604052809291908181526020018280546001816001161561010002031660029004801561062d5780601f106106025761010080835404028352916020019161062d565b820191906000526020600020905b81548152906001019060200180831161061057829003601f168201915b505050505081526020016004820154815260200160058201548152602001600682015481526020016007820160009054906101000a900473ffffffffffffffffffffffffffffffffffffffff1673ffffffffffffffffffffffffffffffffffffffff1673ffffffffffffffffffffffffffffffffffffffff1681526020016008820160009054906101000a900473ffffffffffffffffffffffffffffffffffffffff1673ffffffffffffffffffffffffffffffffffffffff1673ffffffffffffffffffffffffffffffffffffffff1681526020016008820160149054906101000a900460ff1615151515815250509050919050565b60006009600087815260200190815260200160002090503373ffffffffffffffffffffffffffffffffffffffff168160080160009054906101000a900473ffffffffffffffffffffffffffffffffffffffff1673ffffffffffffffffffffffffffffffffffffffff16146107cb576040517f08c379a00000000000000000000000000000000000000000000000000000000081526004016107c290613fbe565b60405180910390fd5b848160010190805190602001906107e392919061332e565b508381600201819055508281600301908051906020019061080592919061332e565b50818160060181905550806009600088815260200190815260200160002060008201548160000155600182018160010190805460018160011615610100020316600290046108549291906133ae565b5060028201548160020155600382018160030190805460018160011615610100020316600290046108869291906133ae565b506004820154816004015560058201548160050155600682015481600601556007820160009054906101000a900473ffffffffffffffffffffffffffffffffffffffff168160070160006101000a81548173ffffffffffffffffffffffffffffffffffffffff021916908373ffffffffffffffffffffffffffffffffffffffff1602179055506008820160009054906101000a900473ffffffffffffffffffffffffffffffffffffffff168160080160006101000a81548173ffffffffffffffffffffffffffffffffffffffff021916908373ffffffffffffffffffffffffffffffffffffffff1602179055506008820160149054906101000a900460ff168160080160146101000a81548160ff02191690831515021790555090505060005b600880549050811015610a935786600882815481106109c157fe5b9060005260206000209060090201600001541415610a865785600882815481106109e757fe5b90600052602060002090600902016001019080519060200190610a0b92919061332e565b508460088281548110610a1a57fe5b9060005260206000209060090201600201819055508360088281548110610a3d57fe5b90600052602060002090600902016003019080519060200190610a6192919061332e565b508260088281548110610a7057fe5b9060005260206000209060090201600601819055505b80806001019150506109a6565b50505050505050565b6000809054906101000a900473ffffffffffffffffffffffffffffffffffffffff1673ffffffffffffffffffffffffffffffffffffffff163373ffffffffffffffffffffffffffffffffffffffff1614610af557600080fd5b60006009600083815260200190815260200160002090506001816004018190555080600960008481526020019081526020016000206000820154816000015560018201816001019080546001816001161561010002031660029004610b5b9291906133ae565b506002820154816002015560038201816003019080546001816001161561010002031660029004610b8d9291906133ae565b506004820154816004015560058201548160050155600682015481600601556007820160009054906101000a900473ffffffffffffffffffffffffffffffffffffffff168160070160006101000a81548173ffffffffffffffffffffffffffffffffffffffff021916908373ffffffffffffffffffffffffffffffffffffffff1602179055506008820160009054906101000a900473ffffffffffffffffffffffffffffffffffffffff168160080160006101000a81548173ffffffffffffffffffffffffffffffffffffffff021916908373ffffffffffffffffffffffffffffffffffffffff1602179055506008820160149054906101000a900460ff168160080160146101000a81548160ff0219169083151502179055509050505050565b60026020528160005260406000208181548110610cc757fe5b906000526020600020016000915091509054906101000a900473ffffffffffffffffffffffffffffffffffffffff1681565b60056020528060005260406000206000915054906101000a900460ff1681565b600060096000848152602001908152602001600020905060008160080160009054906101000a900473ffffffffffffffffffffffffffffffffffffffff16905060001515600560003373ffffffffffffffffffffffffffffffffffffffff1673ffffffffffffffffffffffffffffffffffffffff16815260200190815260200160002060009054906101000a900460ff16151514610dec576040517f08c379a0000000000000000000000000000000000000000000000000000000008152600401610de390613ffe565b60405180910390fd5b600115158260080160149054906101000a900460ff16151514610e44576040517f08c379a0000000000000000000000000000000000000000000000000000000008152600401610e3b9061403e565b60405180910390fd5b6001826004015414610e8b576040517f08c379a0000000000000000000000000000000000000000000000000000000008152600401610e8290613efe565b60405180910390fd5b3373ffffffffffffffffffffffffffffffffffffffff168260080160009054906101000a900473ffffffffffffffffffffffffffffffffffffffff1673ffffffffffffffffffffffffffffffffffffffff161415610f1e576040517f08c379a0000000000000000000000000000000000000000000000000000000008152600401610f1590613f9e565b60405180910390fd5b600082600201548360060154850201905080341015610f72576040517f08c379a0000000000000000000000000000000000000000000000000000000008152600401610f699061401e565b60405180910390fd5b338360070160006101000a81548173ffffffffffffffffffffffffffffffffffffffff021916908373ffffffffffffffffffffffffffffffffffffffff16021790555082600501600081548092919060010191905055506000836004018190555060026000846000015481526020019081526020016000203390806001815401808255809150509060018203906000526020600020016000909192909190916101000a81548173ffffffffffffffffffffffffffffffffffffffff021916908373ffffffffffffffffffffffffffffffffffffffff16021790555050826009600087815260200190815260200160002060008201548160000155600182018160010190805460018160011615610100020316600290046110939291906133ae565b5060028201548160020155600382018160030190805460018160011615610100020316600290046110c59291906133ae565b506004820154816004015560058201548160050155600682015481600601556007820160009054906101000a900473ffffffffffffffffffffffffffffffffffffffff168160070160006101000a81548173ffffffffffffffffffffffffffffffffffffffff021916908373ffffffffffffffffffffffffffffffffffffffff1602179055506008820160009054906101000a900473ffffffffffffffffffffffffffffffffffffffff168160080160006101000a81548173ffffffffffffffffffffffffffffffffffffffff021916908373ffffffffffffffffffffffffffffffffffffffff1602179055506008820160149054906101000a900460ff168160080160146101000a81548160ff02191690831515021790555090505084600660003373ffffffffffffffffffffffffffffffffffffffff1673ffffffffffffffffffffffffffffffffffffffff168152602001908152602001600020819055506001600560003373ffffffffffffffffffffffffffffffffffffffff1673ffffffffffffffffffffffffffffffffffffffff16815260200190815260200160002060006101000a81548160ff021916908315150217905550336007600087815260200190815260200160002060006101000a81548173ffffffffffffffffffffffffffffffffffffffff021916908373ffffffffffffffffffffffffffffffffffffffff16021790555060008360020154340390508273ffffffffffffffffffffffffffffffffffffffff166108fc829081150290604051600060405180830381858888f19350505050158015611321573d6000803e3d6000fd5b50836009600088815260200190815260200160002060008201548160000155600182018160010190805460018160011615610100020316600290046113679291906133ae565b5060028201548160020155600382018160030190805460018160011615610100020316600290046113999291906133ae565b506004820154816004015560058201548160050155600682015481600601556007820160009054906101000a900473ffffffffffffffffffffffffffffffffffffffff168160070160006101000a81548173ffffffffffffffffffffffffffffffffffffffff021916908373ffffffffffffffffffffffffffffffffffffffff1602179055506008820160009054906101000a900473ffffffffffffffffffffffffffffffffffffffff168160080160006101000a81548173ffffffffffffffffffffffffffffffffffffffff021916908373ffffffffffffffffffffffffffffffffffffffff1602179055506008820160149054906101000a900460ff168160080160146101000a81548160ff02191690831515021790555090505060005b6008805490508110156115bf5786600882815481106114d457fe5b90600052602060002090600902016000015414156115b2576000600882815481106114fb57fe5b906000526020600020906009020160040181905550336008828154811061151e57fe5b906000526020600020906009020160070160006101000a81548173ffffffffffffffffffffffffffffffffffffffff021916908373ffffffffffffffffffffffffffffffffffffffff16021790555060016008828154811061157c57fe5b906000526020600020906009020160050154016008828154811061159c57fe5b9060005260206000209060090201600501819055505b80806001019150506114b9565b507f968c7830ab6fcb30d2d10f171a5916d53cd229c90c5effee3e1dadf5d91c234060015485600101866002015487600301886006015433604051611609969594939291906141b4565b60405180910390a1505050505050565b60008060026000848152602001908152602001600020805490501161163d57600080fd5b6002600083815260200190815260200160002060016002600085815260200190815260200160002080549050038154811061167457fe5b9060005260206000200160009054906101000a900473ffffffffffffffffffffffffffffffffffffffff169050919050565b60046020528060005260406000206000915090505481565b6000600960008381526020019081526020016000209050600115158160080160149054906101000a900460ff1615151461172d576040517f08c379a000000000000000000000000000000000000000000000000000000000815260040161172490613f3e565b60405180910390fd5b3373ffffffffffffffffffffffffffffffffffffffff168160080160009054906101000a900473ffffffffffffffffffffffffffffffffffffffff1673ffffffffffffffffffffffffffffffffffffffff16146117bf576040517f08c379a00000000000000000000000000000000000000000000000000000000081526004016117b690613f5e565b60405180910390fd5b7fffffffffffffffffffffffffffffffffffffffffffffffffffffffffffffffff81600401819055508060096000848152602001908152602001600020600082015481600001556001820181600101908054600181600116156101000203166002900461182d9291906133ae565b50600282015481600201556003820181600301908054600181600116156101000203166002900461185f9291906133ae565b506004820154816004015560058201548160050155600682015481600601556007820160009054906101000a900473ffffffffffffffffffffffffffffffffffffffff168160070160006101000a81548173ffffffffffffffffffffffffffffffffffffffff021916908373ffffffffffffffffffffffffffffffffffffffff1602179055506008820160009054906101000a900473ffffffffffffffffffffffffffffffffffffffff168160080160006101000a81548173ffffffffffffffffffffffffffffffffffffffff021916908373ffffffffffffffffffffffffffffffffffffffff1602179055506008820160149054906101000a900460ff168160080160146101000a81548160ff02191690831515021790555090505060005b6008805490508110156119e457826008828154811061199a57fe5b90600052602060002090600902016000015414156119d7576001600882815481106119c157fe5b9060005260206000209060090201600401819055505b808060010191505061197f565b505050565b60066020528060005260406000206000915090505481565b6000600960008381526020019081526020016000209050600115158160080160149054906101000a900460ff16151514611a70576040517f08c379a0000000000000000000000000000000000000000000000000000000008152600401611a6790613f3e565b60405180910390fd5b60008160080160009054906101000a900473ffffffffffffffffffffffffffffffffffffffff16905060008260070160009054906101000a900473ffffffffffffffffffffffffffffffffffffffff1690508073ffffffffffffffffffffffffffffffffffffffff166108fc84600201549081150290604051600060405180830381858888f19350505050158015611b0c573d6000803e3d6000fd5b506001836004018190555060008360070160006101000a81548173ffffffffffffffffffffffffffffffffffffffff021916908373ffffffffffffffffffffffffffffffffffffffff160217905550600060046000868152602001908152602001600020819055506000600560006007600088815260200190815260200160002060009054906101000a900473ffffffffffffffffffffffffffffffffffffffff1673ffffffffffffffffffffffffffffffffffffffff1673ffffffffffffffffffffffffffffffffffffffff16815260200190815260200160002060006101000a81548160ff0219169083151502179055506000600660006007600088815260200190815260200160002060009054906101000a900473ffffffffffffffffffffffffffffffffffffffff1673ffffffffffffffffffffffffffffffffffffffff1673ffffffffffffffffffffffffffffffffffffffff1681526020019081526020016000208190555082600960008681526020019081526020016000206000820154816000015560018201816001019080546001816001161561010002031660029004611cbc9291906133ae565b506002820154816002015560038201816003019080546001816001161561010002031660029004611cee9291906133ae565b506004820154816004015560058201548160050155600682015481600601556007820160009054906101000a900473ffffffffffffffffffffffffffffffffffffffff168160070160006101000a81548173ffffffffffffffffffffffffffffffffffffffff021916908373ffffffffffffffffffffffffffffffffffffffff1602179055506008820160009054906101000a900473ffffffffffffffffffffffffffffffffffffffff168160080160006101000a81548173ffffffffffffffffffffffffffffffffffffffff021916908373ffffffffffffffffffffffffffffffffffffffff1602179055506008820160149054906101000a900460ff168160080160146101000a81548160ff02191690831515021790555090505060005b600880549050811015611ed1578460088281548110611e2957fe5b9060005260206000209060090201600001541415611ec457600160088281548110611e5057fe5b906000526020600020906009020160040181905550600060088281548110611e7457fe5b906000526020600020906009020160070160006101000a81548173ffffffffffffffffffffffffffffffffffffffff021916908373ffffffffffffffffffffffffffffffffffffffff1602179055505b8080600101915050611e0e565b5050505050565b60015481565b60036020528060005260406000206000915090505481565b6009602052806000526040600020600091509050806000015490806001018054600181600116156101000203166002900480601f016020809104026020016040519081016040528092919081815260200182805460018160011615610100020316600290048015611fa85780601f10611f7d57610100808354040283529160200191611fa8565b820191906000526020600020905b815481529060010190602001808311611f8b57829003601f168201915b505050505090806002015490806003018054600181600116156101000203166002900480601f01602080910402602001604051908101604052809291908181526020018280546001816001161561010002031660029004801561204c5780601f106120215761010080835404028352916020019161204c565b820191906000526020600020905b81548152906001019060200180831161202f57829003601f168201915b5050505050908060040154908060050154908060060154908060070160009054906101000a900473ffffffffffffffffffffffffffffffffffffffff16908060080160009054906101000a900473ffffffffffffffffffffffffffffffffffffffff16908060080160149054906101000a900460ff1690508a565b6000600960008381526020019081526020016000209050600115158160080160149054906101000a900460ff16151514612136576040517f08c379a000000000000000000000000000000000000000000000000000000000815260040161212d90613f3e565b60405180910390fd5b3373ffffffffffffffffffffffffffffffffffffffff168160080160009054906101000a900473ffffffffffffffffffffffffffffffffffffffff1673ffffffffffffffffffffffffffffffffffffffff16146121c8576040517f08c379a00000000000000000000000000000000000000000000000000000000081526004016121bf90613f5e565b60405180910390fd5b600960008381526020019081526020016000206000808201600090556001820160006121f49190613435565b600282016000905560038201600061220c9190613435565b6004820160009055600582016000905560068201600090556007820160006101000a81549073ffffffffffffffffffffffffffffffffffffffff02191690556008820160006101000a81549073ffffffffffffffffffffffffffffffffffffffff02191690556008820160146101000a81549060ff0219169055505060008160080160146101000a81548160ff021916908315150217905550600160008154809291906001900391905055506000600560006007600086815260200190815260200160002060009054906101000a900473ffffffffffffffffffffffffffffffffffffffff1673ffffffffffffffffffffffffffffffffffffffff1673ffffffffffffffffffffffffffffffffffffffff16815260200190815260200160002060006101000a81548160ff0219169083151502179055506000600660006007600086815260200190815260200160002060009054906101000a900473ffffffffffffffffffffffffffffffffffffffff1673ffffffffffffffffffffffffffffffffffffffff1673ffffffffffffffffffffffffffffffffffffffff16815260200190815260200160002081905550806009600084815260200190815260200160002060008201548160000155600182018160010190805460018160011615610100020316600290046124009291906133ae565b5060028201548160020155600382018160030190805460018160011615610100020316600290046124329291906133ae565b506004820154816004015560058201548160050155600682015481600601556007820160009054906101000a900473ffffffffffffffffffffffffffffffffffffffff168160070160006101000a81548173ffffffffffffffffffffffffffffffffffffffff021916908373ffffffffffffffffffffffffffffffffffffffff1602179055506008820160009054906101000a900473ffffffffffffffffffffffffffffffffffffffff168160080160006101000a81548173ffffffffffffffffffffffffffffffffffffffff021916908373ffffffffffffffffffffffffffffffffffffffff1602179055506008820160149054906101000a900460ff168160080160146101000a81548160ff02191690831515021790555090505060005b6008805490508110156125ca57826008828154811061256d57fe5b90600052602060002090600902016000015414156125bd5760006008828154811061259457fe5b906000526020600020906009020160080160146101000a81548160ff0219169083151502179055505b8080600101915050612552565b507f4fdc3fa1e322e203c893415fd9fce359600a29bee88fd068597eefa4bc1d1f1360405160405180910390a15050565b60606008805480602002602001604051908101604052809291908181526020016000905b8282101561288f57838290600052602060002090600902016040518061014001604052908160008201548152602001600182018054600181600116156101000203166002900480601f0160208091040260200160405190810160405280929190818152602001828054600181600116156101000203166002900480156126e65780601f106126bb576101008083540402835291602001916126e6565b820191906000526020600020905b8154815290600101906020018083116126c957829003601f168201915b5050505050815260200160028201548152602001600382018054600181600116156101000203166002900480601f0160208091040260200160405190810160405280929190818152602001828054600181600116156101000203166002900480156127925780601f1061276757610100808354040283529160200191612792565b820191906000526020600020905b81548152906001019060200180831161277557829003601f168201915b505050505081526020016004820154815260200160058201548152602001600682015481526020016007820160009054906101000a900473ffffffffffffffffffffffffffffffffffffffff1673ffffffffffffffffffffffffffffffffffffffff1673ffffffffffffffffffffffffffffffffffffffff1681526020016008820160009054906101000a900473ffffffffffffffffffffffffffffffffffffffff1673ffffffffffffffffffffffffffffffffffffffff1673ffffffffffffffffffffffffffffffffffffffff1681526020016008820160149054906101000a900460ff1615151515815250508152602001906001019061261f565b50505050905090565b6000809054906101000a900473ffffffffffffffffffffffffffffffffffffffff1673ffffffffffffffffffffffffffffffffffffffff163373ffffffffffffffffffffffffffffffffffffffff16146128f157600080fd5b60006009600083815260200190815260200160002090507fffffffffffffffffffffffffffffffffffffffffffffffffffffffffffffffff8160040181905550806009600084815260200190815260200160002060008201548160000155600182018160010190805460018160011615610100020316600290046129769291906133ae565b5060028201548160020155600382018160030190805460018160011615610100020316600290046129a89291906133ae565b506004820154816004015560058201548160050155600682015481600601556007820160009054906101000a900473ffffffffffffffffffffffffffffffffffffffff168160070160006101000a81548173ffffffffffffffffffffffffffffffffffffffff021916908373ffffffffffffffffffffffffffffffffffffffff1602179055506008820160009054906101000a900473ffffffffffffffffffffffffffffffffffffffff168160080160006101000a81548173ffffffffffffffffffffffffffffffffffffffff021916908373ffffffffffffffffffffffffffffffffffffffff1602179055506008820160149054906101000a900460ff168160080160146101000a81548160ff0219169083151502179055509050505050565b6000600960008381526020019081526020016000209050600115158160080160149054906101000a900460ff16151514612b38576040517f08c379a0000000000000000000000000000000000000000000000000000000008152600401612b2f90613f3e565b60405180910390fd5b3373ffffffffffffffffffffffffffffffffffffffff168160080160009054906101000a900473ffffffffffffffffffffffffffffffffffffffff1673ffffffffffffffffffffffffffffffffffffffff1614612bca576040517f08c379a0000000000000000000000000000000000000000000000000000000008152600401612bc190613f5e565b60405180910390fd5b7fffffffffffffffffffffffffffffffffffffffffffffffffffffffffffffffff816004018190555080600960008481526020019081526020016000206000820154816000015560018201816001019080546001816001161561010002031660029004612c389291906133ae565b506002820154816002015560038201816003019080546001816001161561010002031660029004612c6a9291906133ae565b506004820154816004015560058201548160050155600682015481600601556007820160009054906101000a900473ffffffffffffffffffffffffffffffffffffffff168160070160006101000a81548173ffffffffffffffffffffffffffffffffffffffff021916908373ffffffffffffffffffffffffffffffffffffffff1602179055506008820160009054906101000a900473ffffffffffffffffffffffffffffffffffffffff168160080160006101000a81548173ffffffffffffffffffffffffffffffffffffffff021916908373ffffffffffffffffffffffffffffffffffffffff1602179055506008820160149054906101000a900460ff168160080160146101000a81548160ff02191690831515021790555090505060005b600880549050811015612e0e578260088281548110612da557fe5b9060005260206000209060090201600001541415612e01577fffffffffffffffffffffffffffffffffffffffffffffffffffffffffffffffff60088281548110612deb57fe5b9060005260206000209060090201600401819055505b8080600101915050612d8a565b505050565b6000845111612e57576040517f08c379a0000000000000000000000000000000000000000000000000000000008152600401612e4e90613f7e565b60405180910390fd5b60008211612e9a576040517f08c379a0000000000000000000000000000000000000000000000000000000008152600401612e9190613fde565b60405180910390fd5b6000835111612ede576040517f08c379a0000000000000000000000000000000000000000000000000000000008152600401612ed590613f1e565b60405180910390fd5b600060019050600080905060018054016001819055506040518061014001604052806001548152602001878152602001858152602001868152602001838152602001828152602001848152602001600073ffffffffffffffffffffffffffffffffffffffff1681526020013373ffffffffffffffffffffffffffffffffffffffff16815260200160011515815250600960006001548152602001908152602001600020600082015181600001556020820151816001019080519060200190612fa792919061347d565b50604082015181600201556060820151816003019080519060200190612fce92919061347d565b506080820151816004015560a0820151816005015560c0820151816006015560e08201518160070160006101000a81548173ffffffffffffffffffffffffffffffffffffffff021916908373ffffffffffffffffffffffffffffffffffffffff1602179055506101008201518160080160006101000a81548173ffffffffffffffffffffffffffffffffffffffff021916908373ffffffffffffffffffffffffffffffffffffffff1602179055506101208201518160080160146101000a81548160ff02191690831515021790555090505060086009600060015481526020019081526020016000209080600181540180825580915050906001820390600052602060002090600902016000909192909190915060008201548160000155600182018160010190805460018160011615610100020316600290046131139291906133ae565b5060028201548160020155600382018160030190805460018160011615610100020316600290046131459291906133ae565b506004820154816004015560058201548160050155600682015481600601556007820160009054906101000a900473ffffffffffffffffffffffffffffffffffffffff168160070160006101000a81548173ffffffffffffffffffffffffffffffffffffffff021916908373ffffffffffffffffffffffffffffffffffffffff1602179055506008820160009054906101000a900473ffffffffffffffffffffffffffffffffffffffff168160080160006101000a81548173ffffffffffffffffffffffffffffffffffffffff021916908373ffffffffffffffffffffffffffffffffffffffff1602179055506008820160149054906101000a900460ff168160080160146101000a81548160ff0219169083151502179055505050507f306fe9e714f56212fcaf47ef0a03ffb7e1c9e9502fc2d64330e7d93c74f4e447600154878688873360405161329d9695949392919061409b565b60405180910390a1505050505050565b60405180610140016040528060008152602001606081526020016000815260200160608152602001600081526020016000815260200160008152602001600073ffffffffffffffffffffffffffffffffffffffff168152602001600073ffffffffffffffffffffffffffffffffffffffff1681526020016000151581525090565b828054600181600116156101000203166002900490600052602060002090601f016020900481019282601f1061336f57805160ff191683800117855561339d565b8280016001018555821561339d579182015b8281111561339c578251825591602001919060010190613381565b5b5090506133aa91906134fd565b5090565b828054600181600116156101000203166002900490600052602060002090601f016020900481019282601f106133e75780548555613424565b8280016001018555821561342457600052602060002091601f016020900482015b82811115613423578254825591600101919060010190613408565b5b50905061343191906134fd565b5090565b50805460018160011615610100020316600290046000825580601f1061345b575061347a565b601f01602090049060005260206000209081019061347991906134fd565b5b50565b828054600181600116156101000203166002900490600052602060002090601f016020900481019282601f106134be57805160ff19168380011785556134ec565b828001600101855582156134ec579182015b828111156134eb5782518255916020019190600101906134d0565b5b5090506134f991906134fd565b5090565b61351f91905b8082111561351b576000816000905550600101613503565b5090565b90565b600081359050613531816143b9565b92915050565b600082601f83011261354857600080fd5b813561355b61355682614250565b614223565b9150808252602083016020830185838301111561357757600080fd5b613582838284614366565b50505092915050565b60008135905061359a816143d0565b92915050565b6000602082840312156135b257600080fd5b60006135c084828501613522565b91505092915050565b600080600080608085870312156135df57600080fd5b600085013567ffffffffffffffff8111156135f957600080fd5b61360587828801613537565b945050602085013567ffffffffffffffff81111561362257600080fd5b61362e87828801613537565b935050604061363f8782880161358b565b92505060606136508782880161358b565b91505092959194509250565b60006020828403121561366e57600080fd5b600061367c8482850161358b565b91505092915050565b600080600080600060a0868803121561369d57600080fd5b60006136ab8882890161358b565b955050602086013567ffffffffffffffff8111156136c857600080fd5b6136d488828901613537565b94505060406136e58882890161358b565b935050606086013567ffffffffffffffff81111561370257600080fd5b61370e88828901613537565b925050608061371f8882890161358b565b9150509295509295909350565b6000806040838503121561373f57600080fd5b600061374d8582860161358b565b925050602061375e8582860161358b565b9150509250929050565b60006137748383613da7565b905092915050565b61378581614314565b82525050565b61379481614314565b82525050565b6137a381614302565b82525050565b60006137b4826142a1565b6137be81856142cf565b9350836020820285016137d08561427c565b8060005b8581101561380c57848403895281516137ed8582613768565b94506137f8836142c2565b925060208a019950506001810190506137d4565b50829750879550505050505092915050565b61382781614326565b82525050565b61383681614326565b82525050565b61384581614332565b82525050565b61385481614332565b82525050565b6000613865826142b7565b61386f81856142f1565b935061387f818560208601614375565b613888816143a8565b840191505092915050565b600061389e826142ac565b6138a881856142e0565b93506138b8818560208601614375565b6138c1816143a8565b840191505092915050565b60006138d7826142ac565b6138e181856142f1565b93506138f1818560208601614375565b6138fa816143a8565b840191505092915050565b60008154600181166000811461392257600181146139485761398c565b607f600283041661393381876142f1565b955060ff19831686526020860193505061398c565b6002820461395681876142f1565b95506139618561428c565b60005b8281101561398357815481890152600182019150602081019050613964565b80880195505050505b505092915050565b60006139a1601c836142f1565b91507f5468652076656869636c65206973206e6f7420617661696c61626c65000000006000830152602082019050919050565b60006139e1601a836142f1565b91507f506c6561736520696e7075742061206465736372697074696f6e0000000000006000830152602082019050919050565b6000613a216013836142f1565b91507f5468697320646f6573206e6f74206578697374000000000000000000000000006000830152602082019050919050565b6000613a616024836142f1565b91507f596f7520617265206e6f74207468652063726561746f72206f6620746869732060008301527f52656e74000000000000000000000000000000000000000000000000000000006020830152604082019050919050565b6000613ac76011836142f1565b91507f506c6561736520696e707574204e616d650000000000000000000000000000006000830152602082019050919050565b6000613b07603a836142f1565b91507f596f752061726520746865206f776e6572206f662074686973206361722c205560008301527f736520616e6f74686572206163636f756e7420746f2072656e740000000000006020830152604082019050919050565b6000613b6d6021836142f1565b91507f596f7520617265206e6f7420746865206f776e6572206f66207468697320636160008301527f72000000000000000000000000000000000000000000000000000000000000006020830152604082019050919050565b6000613bd3601d836142f1565b91507f506c6561736520696e70757420612073656375726974792076616c75650000006000830152602082019050919050565b6000613c13601d836142f1565b91507f596f752061726520616c72656164792072656e74696e672061206361720000006000830152602082019050919050565b6000613c53601e836142f1565b91507f54686520616d6f756e7420646f6573206e6f7420636f766572206665657300006000830152602082019050919050565b6000613c936017836142f1565b91507f546869732043617220646f6573206e6f742065786973740000000000000000006000830152602082019050919050565b600061014083016000830151613cdf6000860182613e88565b5060208301518482036020860152613cf78282613893565b9150506040830151613d0c6040860182613e88565b5060608301518482036060860152613d248282613893565b9150506080830151613d39608086018261383c565b5060a0830151613d4c60a0860182613e88565b5060c0830151613d5f60c0860182613e88565b5060e0830151613d7260e086018261377c565b50610100830151613d8761010086018261377c565b50610120830151613d9c61012086018261381e565b508091505092915050565b600061014083016000830151613dc06000860182613e88565b5060208301518482036020860152613dd88282613893565b9150506040830151613ded6040860182613e88565b5060608301518482036060860152613e058282613893565b9150506080830151613e1a608086018261383c565b5060a0830151613e2d60a0860182613e88565b5060c0830151613e4060c0860182613e88565b5060e0830151613e5360e086018261377c565b50610100830151613e6861010086018261377c565b50610120830151613e7d61012086018261381e565b508091505092915050565b613e918161435c565b82525050565b613ea08161435c565b82525050565b6000602082019050613ebb600083018461379a565b92915050565b60006020820190508181036000830152613edb81846137a9565b905092915050565b6000602082019050613ef8600083018461382d565b92915050565b60006020820190508181036000830152613f1781613994565b9050919050565b60006020820190508181036000830152613f37816139d4565b9050919050565b60006020820190508181036000830152613f5781613a14565b9050919050565b60006020820190508181036000830152613f7781613a54565b9050919050565b60006020820190508181036000830152613f9781613aba565b9050919050565b60006020820190508181036000830152613fb781613afa565b9050919050565b60006020820190508181036000830152613fd781613b60565b9050919050565b60006020820190508181036000830152613ff781613bc6565b9050919050565b6000602082019050818103600083015261401781613c06565b9050919050565b6000602082019050818103600083015261403781613c46565b9050919050565b6000602082019050818103600083015261405781613c86565b9050919050565b600060208201905081810360008301526140788184613cc6565b905092915050565b60006020820190506140956000830184613e97565b92915050565b600060c0820190506140b06000830189613e97565b81810360208301526140c2818861385a565b90506140d16040830187613e97565b81810360608301526140e3818661385a565b90506140f26080830185613e97565b6140ff60a083018461378b565b979650505050505050565b600061014082019050614120600083018d613e97565b8181036020830152614132818c6138cc565b9050614141604083018b613e97565b8181036060830152614153818a6138cc565b9050614162608083018961384b565b61416f60a0830188613e97565b61417c60c0830187613e97565b61418960e083018661378b565b61419761010083018561378b565b6141a561012083018461382d565b9b9a5050505050505050505050565b600060c0820190506141c96000830189613e97565b81810360208301526141db8188613905565b90506141ea6040830187613e97565b81810360608301526141fc8186613905565b905061420b6080830185613e97565b61421860a083018461378b565b979650505050505050565b6000604051905081810181811067ffffffffffffffff8211171561424657600080fd5b8060405250919050565b600067ffffffffffffffff82111561426757600080fd5b601f19601f8301169050602081019050919050565b6000819050602082019050919050565b60008190508160005260206000209050919050565b600081519050919050565b600081519050919050565b600081519050919050565b6000602082019050919050565b600082825260208201905092915050565b600082825260208201905092915050565b600082825260208201905092915050565b600061430d8261433c565b9050919050565b600061431f8261433c565b9050919050565b60008115159050919050565b6000819050919050565b600073ffffffffffffffffffffffffffffffffffffffff82169050919050565b6000819050919050565b82818337600083830152505050565b60005b83811015614393578082015181840152602081019050614378565b838111156143a2576000848401525b50505050565b6000601f19601f8301169050919050565b6143c281614302565b81146143cd57600080fd5b50565b6143d98161435c565b81146143e457600080fd5b5056fea365627a7a723158206f6d10a8a54b912a802e6b02bfbee8c9b448697b8b3ee2ae141432e15f770a3f6c6578706572696d656e74616cf564736f6c63430005100040",
  "source": "// SPDX-License-Identifier: GPL-3.0\r\npragma solidity ^0.5.0;\r\npragma experimental ABIEncoderV2;\r\n\r\ncontract Rent {\r\n    struct RentDetail {\r\n        uint256 rentId; // id of Vehicle\r\n        string name; // short name of Vehicle\r\n        uint256 security; // security money\r\n        string description; // full description about vehicle\r\n        int256 availability; //-1:maintenance 0:rented 1:available\r\n        uint256 popularity; // how many times vehicle rented\r\n        uint256 rentPerDay;\r\n        address payable person;\r\n        address payable owner;\r\n        bool exists;\r\n    }\r\n\r\n    event RentCreated(\r\n        uint256 rentId,\r\n        string name,\r\n        uint256 security,\r\n        string description,\r\n        uint256 rentPerDay,\r\n        address payable person\r\n    );\r\n\r\n    event RentTaken(\r\n        uint256 rentId,\r\n        string name,\r\n        uint256 security,\r\n        string description,\r\n        uint256 rentPerDay,\r\n        address payable person\r\n    );\r\n\r\n    event RentDeleted();\r\n\r\n    address payable manager;\r\n    uint256 public rentCount;\r\n\r\n    mapping(uint256 => address[]) public pastRents; // list of people who rented this vehicle\r\n    mapping(uint256 => uint256) public rentingTime; //time at which he take vehicle at rent\r\n    mapping(uint256 => uint256) public timeOfRent; // amount of time for rent\r\n    mapping(address => bool) public isRenting;\r\n    mapping(address => uint256) public rented;\r\n    mapping(uint256 => address) rentedBy;\r\n    RentDetail[] allRents;\r\n    mapping(uint256 => RentDetail) public rentDetails;\r\n\r\n    modifier permission() {\r\n        require(msg.sender == manager);\r\n        _;\r\n    }\r\n\r\n    constructor() public {\r\n        manager = msg.sender;\r\n        rentCount = 0;\r\n    }\r\n\r\n    function createRent(\r\n        string memory _name,\r\n        string memory _description,\r\n        uint256 _security,\r\n        uint256 _rentPerDay\r\n    ) public {\r\n        require(bytes(_name).length > 0, \"Please input Name\");\r\n        require(_security > 0, \"Please input a security value\");\r\n        require(bytes(_description).length > 0, \"Please input a description\");\r\n        // require(_security + _rentPerDay > 0);\r\n        // require(msg.sender == manager);\r\n        int256 availability = 1;\r\n        uint256 popularity = 0;\r\n\r\n        rentCount = rentCount + 1;\r\n\r\n        rentDetails[rentCount] = RentDetail(\r\n            rentCount,\r\n            _name,\r\n            _security,\r\n            _description,\r\n            availability,\r\n            popularity,\r\n            _rentPerDay,\r\n            address(0),\r\n            msg.sender,\r\n            true\r\n        );\r\n        allRents.push(rentDetails[rentCount]);\r\n        emit RentCreated(\r\n            rentCount,\r\n            _name,\r\n            _security,\r\n            _description,\r\n            _rentPerDay,\r\n            msg.sender\r\n        );\r\n    }\r\n\r\n    function editDetails(\r\n        uint256 _id,\r\n        string memory newname,\r\n        uint256 newsecurity,\r\n        string memory newDescription,\r\n        uint256 newrentPerDay\r\n    ) public {\r\n        RentDetail storage _rentDetail = rentDetails[_id];\r\n        require(\r\n            _rentDetail.owner == msg.sender,\r\n            \"You are not the owner of this car\"\r\n        );\r\n        _rentDetail.name = newname;\r\n        _rentDetail.security = newsecurity;\r\n        _rentDetail.description = newDescription;\r\n        _rentDetail.rentPerDay = newrentPerDay;\r\n\r\n        /// update mapping\r\n        rentDetails[_id] = _rentDetail;\r\n\r\n        // update array\r\n        for (uint256 i; i < allRents.length; i++) {\r\n            if (allRents[i].rentId == _id) {\r\n                allRents[i].name = newname;\r\n                allRents[i].security = newsecurity;\r\n                allRents[i].description = newDescription;\r\n                allRents[i].rentPerDay = newrentPerDay;\r\n            }\r\n        }\r\n    }\r\n\r\n    function takeOnMaintenance(uint256 _id) public permission {\r\n        RentDetail storage _rentDetail = rentDetails[_id];\r\n        _rentDetail.availability = -1;\r\n        rentDetails[_id] = _rentDetail;\r\n    }\r\n\r\n    function returnFromMaintenance(uint256 _id) public permission {\r\n        RentDetail storage _rentDetail = rentDetails[_id];\r\n        _rentDetail.availability = 1;\r\n        rentDetails[_id] = _rentDetail;\r\n    }\r\n\r\n    function takeRent(\r\n        uint256 _id,\r\n        // uint256 _rentingTime,\r\n        uint256 _timeOfRent\r\n    ) public payable {\r\n        RentDetail storage _rentDetail = rentDetails[_id];\r\n        address payable _owner = _rentDetail.owner;\r\n        require(\r\n            isRenting[msg.sender] == false,\r\n            \"You are already renting a car\"\r\n        );\r\n        require(_rentDetail.exists == true, \"This Car does not exist\");\r\n\r\n        require(_rentDetail.availability == 1, \"The vehicle is not available\");\r\n        require(\r\n            _rentDetail.owner != msg.sender,\r\n            \"You are the owner of this car, Use another account to rent\"\r\n        );\r\n        // rentingTime[_rentDetail.rentId] = _rentingTime;\r\n        uint256 total = _timeOfRent *\r\n            _rentDetail.rentPerDay +\r\n            _rentDetail.security;\r\n        require(msg.value >= total, \"The amount does not cover fees\");\r\n        _rentDetail.person = msg.sender;\r\n        _rentDetail.popularity++;\r\n        _rentDetail.availability = 0;\r\n        pastRents[_rentDetail.rentId].push(msg.sender);\r\n        rentDetails[_id] = _rentDetail;\r\n\r\n        rented[msg.sender] = _id;\r\n        isRenting[msg.sender] = true;\r\n        rentedBy[_id] = msg.sender;\r\n\r\n        // transfer funds\r\n        uint256 toTransfer = (msg.value - _rentDetail.security);\r\n        address(_owner).transfer(toTransfer);\r\n\r\n        // update mapping\r\n        rentDetails[_id] = _rentDetail;\r\n\r\n        // Update array\r\n        for (uint256 i; i < allRents.length; i++) {\r\n            if (allRents[i].rentId == _id) {\r\n                allRents[i].availability = 0;\r\n                allRents[i].person = msg.sender;\r\n                allRents[i].popularity = allRents[i].popularity + 1;\r\n            }\r\n        }\r\n        emit RentTaken(\r\n            rentCount,\r\n            _rentDetail.name,\r\n            _rentDetail.security,\r\n            _rentDetail.description,\r\n            _rentDetail.rentPerDay,\r\n            msg.sender\r\n        );\r\n    }\r\n\r\n    function returnRent(uint256 _id) public payable {\r\n        RentDetail storage _rentDetail = rentDetails[_id];\r\n        require(_rentDetail.exists == true, \"This does not exist\");\r\n        address payable _owner = _rentDetail.owner;\r\n        address payable _person = _rentDetail.person;\r\n\r\n        // transfer security back to leaser\r\n        _person.transfer(_rentDetail.security);\r\n\r\n        _rentDetail.availability = 1;\r\n        _rentDetail.person = address(0);\r\n\r\n        // update\r\n        timeOfRent[_id] = 0;\r\n        isRenting[rentedBy[_id]] = false;\r\n        rented[rentedBy[_id]] = 0;\r\n\r\n        // update mapping\r\n        rentDetails[_id] = _rentDetail;\r\n\r\n        // Update array\r\n        for (uint256 i; i < allRents.length; i++) {\r\n            if (allRents[i].rentId == _id) {\r\n                allRents[i].availability = 1;\r\n                allRents[i].person = address(0);\r\n            }\r\n        }\r\n    }\r\n\r\n    function getCurrentLessor(uint256 _id) public view returns (address) {\r\n        require(pastRents[_id].length > 0);\r\n        return pastRents[_id][pastRents[_id].length - 1];\r\n    }\r\n\r\n    function deleteRent(uint256 _id) public {\r\n        RentDetail storage _rentDetail = rentDetails[_id];\r\n        require(_rentDetail.exists == true, \"This does not exist\");\r\n        require(\r\n            _rentDetail.owner == msg.sender,\r\n            \"You are not the creator of this Rent\"\r\n        );\r\n        delete rentDetails[_id];\r\n        _rentDetail.exists = false;\r\n        rentCount--;\r\n        isRenting[rentedBy[_id]] = false;\r\n        rented[rentedBy[_id]] = 0;\r\n        rentDetails[_id] = _rentDetail;\r\n        for (uint256 i; i < allRents.length; i++) {\r\n            if (allRents[i].rentId == _id) {\r\n                allRents[i].exists = false;\r\n            }\r\n        }\r\n        emit RentDeleted();\r\n    }\r\n\r\n    function getAllRent() public view returns (RentDetail[] memory) {\r\n        return allRents;\r\n    }\r\n\r\n    function getRent(uint256 _id) public view returns (RentDetail memory) {\r\n        return rentDetails[_id];\r\n    }\r\n\r\n    function takeToMaintenance(uint256 _id) public {\r\n        RentDetail storage _rentDetail = rentDetails[_id];\r\n        require(_rentDetail.exists == true, \"This does not exist\");\r\n        require(\r\n            _rentDetail.owner == msg.sender,\r\n            \"You are not the creator of this Rent\"\r\n        );\r\n\r\n        _rentDetail.availability = -1;\r\n        // update mapping\r\n        rentDetails[_id] = _rentDetail;\r\n\r\n        // Update array\r\n        for (uint256 i; i < allRents.length; i++) {\r\n            if (allRents[i].rentId == _id) {\r\n                allRents[i].availability = -1;\r\n            }\r\n        }\r\n    }\r\n\r\n    function removeFromMaintenance(uint256 _id) public {\r\n        RentDetail storage _rentDetail = rentDetails[_id];\r\n        require(_rentDetail.exists == true, \"This does not exist\");\r\n        require(\r\n            _rentDetail.owner == msg.sender,\r\n            \"You are not the creator of this Rent\"\r\n        );\r\n\r\n        _rentDetail.availability = -1;\r\n        // update mapping\r\n        rentDetails[_id] = _rentDetail;\r\n\r\n        // Update array\r\n        for (uint256 i; i < allRents.length; i++) {\r\n            if (allRents[i].rentId == _id) {\r\n                allRents[i].availability = 1;\r\n            }\r\n        }\r\n    }\r\n}\r\n",
  "sourcePath": "/Users/onyejivictor/Downloads/v-rent/contracts/Rent.sol",
  "compiler": {
    "name": "solc",
    "version": "0.5.16+commit.9c3226ce.Emscripten.clang"
  },
  "schemaVersion": "3.4.1",
  "updatedAt": "2021-07-13T00:17:26.723Z",
  "networkType": "ethereum",
  "devdoc": {
    "methods": {}
  },
  "userdoc": {
    "methods": {}
  }
}